:100000000C9464000C948C000C948C000C948C0068
:100010000C948C000C948C000C948C000C948C0030
:100020000C948C000C948C000C948C000C948C0020
:100030000C948C000C948C000C948C000C948C0010
:100040000C94D00F0C948C000C9418100C94451048
:100050000C948C000C948C000C948C000C948C00F0
:100060000C946B100C948C000000000024002700FE
:100070002A0000000000250028002B0004040404CE
:100080000404040402020202020203030303030342
:10009000010204081020408001020408102001021F
:1000A00004081020000000080002010000030407FB
:1000B00000000000000000001F1C1F1E1F1E1F1F4D
:1000C0001E1F1E00AC1B881111241FBECFEFD8E0ED
:1000D000DEBFCDBF26E0AEE2B5E001C01D92AC3E72
:1000E000B207E1F715E0A0E0B1E0E2E3F4E402C01A
:1000F00005900D92AE32B107D9F710E0C3E6D0E01B
:1001000004C02197FE010E94F021C236D107C9F731
:100110000E94AF110C94971C0C940000CF93DF93B6
:1001200000D000D0CDB7DEB73FB7F8948091FC0582
:100130009091FD05A091FE05B091FF0526B5A89B05
:1001400005C02F3F19F00196A11DB11D3FBFBA2F69
:10015000A92F982F8827820F911DA11DB11D9C01E9
:10016000AD0162E0220F331F441F551F6A95D1F77E
:10017000CA01B9010F900F900F900F90DF91CF91AE
:1001800008958F929F92AF92BF92CF92DF92EF929B
:10019000FF92CF93DF9300D000D0CDB7DEB74B01F5
:1001A0005C010E948E006B017C010E948E006983BD
:1001B0007A838B839C83DC01CB018C199D09AE096A
:1001C000BF09883E9340A105B10578F321E0821A6A
:1001D0009108A108B10888EEC80E83E0D81EE11C82
:1001E000F11C81149104A104B104F9F60F900F9051
:1001F0000F900F90DF91CF91FF90EF90DF90CF9015
:10020000BF90AF909F908F900895FC01A48DA80F90
:10021000B92FB11DA35ABF4F2C91848D90E0019648
:100220008F739927848FA689B7892C93A089B18968
:100230008C91837080648C93938D848D981306C009
:100240000288F389E02D80818F7D80830895FC01F1
:10025000818D228D90E0805C9F4F821B91098F736E
:10026000992708958BE496E00E9427019C0181E084
:10027000232B09F480E00895FC01918D828D98175D
:1002800031F0828DE80FF11D858D90E008958FEF9C
:100290009FEF0895FC01918D828D981761F0A28DDA
:1002A000AE0FBF2FB11D5D968C91928D9F5F9F7396
:1002B000928F90E008958FEF9FEF0895FC01538D8A
:1002C000448D252F30E0842F90E0821B930B541730
:1002D00010F0CF96089501970895CF93DF93EC0126
:1002E000888D81110FC0DF91CF9108950FB607FC63
:1002F0000DC08C9185FF0AC0808185FF07C0CE01AB
:100300000E940501AA89BB89E889F9898C9185FD3C
:10031000EDCF808186FFEACFE6CFEF92FF920F9379
:100320001F93CF93DF93EC01F62E81E0888F9B8D96
:100330008C8D98131AC0E889F989808185FF15C0D2
:100340009FB7F894EE89FF896083E889F9898081F5
:100350008370806480839FBF81E090E0DF91CF91C4
:100360001F910F91FF90EF9008950B8D10E00F5F9C
:100370001F4F0F731127E02E8C8D8E1579F0EB8DAA
:10038000EC0FFD2FF11DE35AFF4FF0829FB7F89459
:100390000B8FEA89FB8980818062DCCF0FB607FC76
:1003A000EBCFE889F989808185FFE6CFCE010E94F5
:1003B0000501E2CF80E090E008950895CF92DF92AA
:1003C000EF92FF920F931F93CF93DF937C016A010B
:1003D00000E010E00C151D0551F4C801DF91CF912C
:1003E0001F910F91FF90EF90DF90CF900895EB0158
:1003F000D701ED91FC910190F081E02D6991C70149
:100400000995892B51F30F5F1F4FBE01E3CF8091F8
:10041000C4059091C305891B990B08959091C3055C
:100420008091C4052FEF3FEF981748F4E92FF0E0D3
:10043000ED55FA4F208130E09F5F9093C305C901CD
:100440000895E091C3058091C405E81730F4F0E009
:10045000ED55FA4F808190E008958FEF9FEF08955A
:1004600008950895089520919F05260F3327331F7F
:1004700021323105ECF42091A205FC0180E090E0EE
:10048000243069F082E00895A0919F052191AC018C
:1004900041585A4FA40FB52FB11D2C9301968617C2
:1004A00098F380919F05680F60939F0580E0089501
:1004B00081E00895CF93DF930F92CDB7DEB7FC01B3
:1004C00069838091E7058823F1F08091E605803209
:1004D00050F081E090E09383828380E090E00F9081
:1004E000DF91CF9108958091E505E82FF0E0EB537F
:1004F000FA4F998190838F5F8093E5058093E6059D
:1005000081E090E0ECCF61E0CE0101960E943302E1
:10051000F7CFCF92DF92EF92FF920F931F93CF937B
:10052000DF937C01CB018A012091E7052223D9F0DA
:10053000EB016B01C40ED51ECC15DD0551F4C801CD
:10054000DF91CF911F910F91FF90EF90DF90CF90AF
:1005500008956991D701ED91FC910190F081E02D12
:10056000C7010995E9CF642F0E943302E8CF0895AF
:1005700008950895CF93DF9300D000D000D0CDB779
:10058000DEB78D839E83ED81FE8161812081422FC4
:1005900050E0828190E0E8EBF0E031E0361708F4BB
:1005A00060C0633020F02370211101C001966DE618
:1005B00071E0469F9001479F300D569F300D1124EA
:1005C000215031094D5F5F4F569547955695479598
:1005D000240F351F280F391FA8E1B0E00E948B219E
:1005E00069837A838B839C83ED81FE81838129815A
:1005F0003A814B815C81280F311D411D511DACE3B7
:10060000B0E00E94492169837A838B839C83848133
:1006100029813A814B815C81280F311D411D511D7B
:100620000E94492169837A838B839C83858190E032
:10063000A0E0B0E080589C4BA249B74C29813A8198
:100640004B815C81280F391F4A1F5B1FCA01B9010A
:100650000F900F900F900F900F900F90DF91CF9110
:1006600008957491870F911D3F5F319697CF90E069
:10067000FC01EC55FF4F2491FC01E057FF4F3491F2
:10068000FC01E458FF4FE491EE2309F1222379F0B5
:10069000243021F140F4223029F12330C9F084B50F
:1006A0008F7784BD04C0273001F1283021F1F0E0BC
:1006B000EE0FFF1FEE58FF4FA591B4919FB7F8942E
:1006C0008C9161111CC0309538233C939FBF0895D5
:1006D000809180008F7780938000E9CF80918000A7
:1006E0008F7DF9CF84B58F7DDCCF8091B0008F777F
:1006F0008093B000DCCF8091B0008F7DF9CF832B49
:100700008C93E4CF1092A20581E08093A105109212
:10071000A00561E082E10E94370361E083E10E946D
:100720003703E9EBF0E080818E7F808380818D7FCD
:10073000808388E48093B80085E48093BC000895AA
:10074000CF93DF9391E0909379058823B9F0C0911E
:10075000B800D091BA008091BC008A7B8093BC0025
:1007600060E082E10E94370360E083E10E9437038A
:100770000E948203D093BA00C093B800DF91CF915A
:100780000895CF93DF93EC0160E08E810E943703E0
:1007900061E08E810E94370360E08E810E94370302
:1007A0008BE891E00197F1F7DF91CF910895CF9217
:1007B000DF92EF92FF920F931F93CF93DF93EC01A1
:1007C0006C0187E0C80ED11C00E010E0E62EF12C91
:1007D000B701002E02C0759567950A94E2F7617023
:1007E000F60181916F010E9437030F5F1F4F0430A4
:1007F000110571F7CE01DF91CF911F910F91FF90FD
:10080000EF90DF90CF900C94C103CF92DF92EF92E4
:10081000FF920F931F93CF93DF93EC01062F642F6A
:100820008C810E9437038D818F3F19F060E00E9418
:1008300037038F8584FF26C06E0187E0C80ED11C68
:10084000E12CF12C10E0B8010E2C02C075956795D3
:100850000A94E2F76170F60181916F010E943703FB
:10086000FFEFEF1AFF0A88E0E816F10461F7CE0106
:10087000DF91CF911F910F91FF90EF90DF90CF907C
:100880000C94C103602F62956F70CE010E94D70354
:10089000602FCE01DF91CF911F910F91FF90EF90CC
:1008A000DF90CF900C94D70341E00E94050481E0D3
:1008B00090E008958F929F92AF92BF92CF92DF9275
:1008C000EF92FF92CF93DF9300D000D000D0CDB74E
:1008D000DEB7E82E8091E6058E83813208F0F2C003
:1008E000F0902E050E948E004B015C018091A205C4
:1008F0008D83811174C082E08093A205E092A105EE
:100900008FEF80935505109277058E818093760541
:10091000482F50E065EC75E086E595E00E94EF1FFA
:100920001092780580917805FF0CF82AF0927805EE
:100930008091A005813009F099C01092A0050E9415
:100940008E006B017C01809178058093BB008091C3
:100950007B0590917C05A0917D05B0917E05892B4A
:100960008A2B8B2BE1F00E948E0069837A838B8324
:100970009C8340917B0550917C0560917D05709131
:100980007E0589819A81AB81BC818C199D09AE0954
:10099000BF09481759076A077B0708F449C08091C7
:1009A000BC0083FDD0CF85EC8093BC000E948E00FC
:1009B0006B017C018091A205823009F459C08091BD
:1009C00055058F3FD9F180915505803209F47CC0DF
:1009D00080915505803309F079C083E02EC0809165
:1009E0007B0590917C05A0917D05B0917E05892BBA
:1009F0008A2B8B2B09F47ACF0E948E0069837A832D
:100A00008B839C8340917B0550917C0560917D0593
:100A100070917E0589819A81AB81BC818819990981
:100A2000AA09BB09481759076A077B0708F05ECF78
:100A300080917A050E94A00385E08D831092E505E0
:100A40001092E6051092E7058D810F900F900F90A0
:100A50000F900F900F90DF91CF91FF90EF90DF906C
:100A6000CF90BF90AF909F908F90089585EE9CCFD0
:100A700080917B0590917C05A0917D05B0917E05CC
:100A8000892B8A2B8B2B09F495CF0E948E006983CA
:100A90007A838B839C8340917B0550917C05609188
:100AA0007D0570917E0589819A81AB81BC818C190D
:100AB0009D09AE09BF09481759076A077B0708F067
:100AC00079CFB6CF81E0B9CF82E0B7CF84E0B5CFA0
:100AD000CF93DF93EC011092C3051092C4051092DE
:100AE000E5051092E6050E94820382E392E090936E
:100AF000300580932F0581E392E090933305809336
:100B0000320581E08B8398818093E70590932E05D1
:100B10000E945A04982F81E0911180E0DF91CF91DB
:100B200008952F923F924F925F926F927F928F9291
:100B30009F92AF92BF92CF92DF92EF92FF920F936C
:100B40001F93CF93DF9300D000D000D0CDB7DEB796
:100B50005C014B016A01E12CF12C3324339485EEC6
:100B6000282ED50114968D919C9186010E191F098E
:100B70008017910708F48C01F501F081FE830E9433
:100B80008E002B013C018091A20581117CC00D8358
:100B9000013210F090E29D833092A20521E0C6015F
:100BA000801B910BE816F90608F420E02093A105BC
:100BB000AFEFA0935505109277058D8181508093FA
:100BC00076053092780580917805BE81BB0FB82BF1
:100BD000B09378058091A005813009F0B8C01092DB
:100BE000A0050E948E002B013C0180917805809326
:100BF000BB0080917B0590917C05A0917D05B09113
:100C00007E05892B8A2B8B2BE1F00E948E00698355
:100C10007A838B839C8340917B0550917C05609106
:100C20007D0570917E0589819A81AB81BC81841993
:100C30009509A609B709481759076A077B0708F4F9
:100C40004BC08091BC0083FDD0CF85EC8093BC006D
:100C50000E948E002B013C018091A205813009F495
:100C600079C080917705ED818E1718F4F0917705A2
:100C7000FD838D81482F50E066E575E083EA95E0BD
:100C80000E94EF1F2EC080917B0590917C05A09162
:100C90007D05B0917E05892B8A2B8B2B09F473CFB0
:100CA0000E948E0069837A838B839C8340917B05AD
:100CB00050917C0560917D0570917E0589819A81B6
:100CC000AB81BC8184199509A609B7094817590752
:100CD0006A077B0708F057CF80917A050E94A0032E
:100CE0001D821092C3059D819093C405A92FB0E089
:100CF0000A171B0709F06CC0F401EE0DFF1DFA8303
:100D0000E983612C712C0615170509F04DC0E00E22
:100D1000F11EEC14FD0408F424CF81E00F900F9035
:100D20000F900F900F900F90DF91CF911F910F9127
:100D3000FF90EF90DF90CF90BF90AF909F908F90FB
:100D40007F906F905F904F903F902F9008952092EA
:100D5000BC007ECF80917B0590917C05A0917D05A4
:100D6000B0917E05892B8A2B8B2B09F475CF0E94BD
:100D70008E0069837A838B839C8340917B0550919D
:100D80007C0560917D0570917E0589819A81AB819A
:100D9000BC8184199509A609B709481759076A073C
:100DA0007B0708F059CF98CFD50111968D919C9172
:100DB000DC01ED91FC910284F385E02D0995E98138
:100DC000FA818193FA83E983FFEF6F1A7F0A9BCF41
:100DD00080E0A4CF90E0FC01E057FF4F24918458BD
:100DE0009F4FFC0184918823A1F090E0880F991F08
:100DF000FC01E859FF4FA591B491FC01EE58FF4F5B
:100E0000859194918FB7F8949C91E22FE92BEC9304
:100E10008FBF0895682F40E083E196E00C940504AD
:100E200090912606891710F08FEF890FE82FF0E0D8
:100E3000ED5EF94F848980680C940A0781E00E9476
:100E40000A078BE39FE10197F1F708950F931F9332
:100E5000CF93DF93823029F490912206986090938B
:100E60002206809326061092270680E480932806A7
:100E700080E18093290680E580932A0680911706F9
:100E80000E94EA06809118068F3F11F00E94EA0640
:100E9000809119060E94EA060AE116E0C0E0D0E05F
:100EA0008091220684FF5CC088E090E0C817D907D3
:100EB0000CF44FC08BE39DE00197F1F760E0809167
:100EC00017060E94370360E0809119060E943703DD
:100ED000809118068F3F19F060E00E9437038091DF
:100EE000220684FD3FC063E083E196E00E94D703C1
:100EF000CBE4D6E4CE010197F1F763E083E196E01D
:100F00000E94D7032197F1F763E083E196E00E9406
:100F1000D70383E592E00197F1F762E083E196E081
:100F20000E94D7038091220680620E940A0784E013
:100F3000809323068CE00E940A070E941E0782E02D
:100F40008093240686E0DF91CF911F910F910C943E
:100F50000A07F80181918F010E94EA062196A0CF2D
:100F600084E0A3CF80620E940A078BE496E4019795
:100F7000F1F78091220680620E940A0783E592E0E1
:100F80000197F1F78091220680620E940A07CACF7A
:100F9000CF93DF930F92CDB7DEB741E050E0BE01B3
:100FA0006F5F7F4F0E949105882329F089810F9000
:100FB000DF91CF9108958FEFFACFDC01ED91FC9195
:100FC0000190F081E02D0994DC01FB014481558101
:100FD00060817181ED91FC910280F381E02D099493
:100FE0001F93CF93DF93FC01EA01122F8481958137
:100FF0008417950710F480E01DC0818192812081C3
:1010000031E03093E70520932E051092E50510920C
:10101000E605DC01ED91FC910280F381E02D09955C
:10102000C817D90741F7812F0E945A04982F81E0F1
:101030009111E1CFDF91CF911F910895EF92FF922F
:101040000F931F93CF93DF9300D000D000D00F9267
:10105000CDB7DEB78C011982E090F405F090F5056C
:1010600020E041E050E0BE016F5F7F4FC7010E946A
:10107000F007882341F047E050E0BE016F5F7F4FEB
:10108000C7010E94910599819F772A813B814D81FB
:101090005E816F81862F82958F70782F770F770F03
:1010A000871B880F860FF8018083852F82958F70AC
:1010B000682F660F660F861B880F850F8183842F2C
:1010C00082958F70582F550F550F851B880F840FF1
:1010D0008283832F82958F70482F440F440F841B87
:1010E000880F830F8383822F82958F70382F330F61
:1010F000330F831B880F820F8483892F82958F7013
:10110000282F220F220F821B880F890F8583C80189
:1011100027960FB6F894DEBF0FBECDBFDF91CF91FB
:101120001F910F91FF90EF900895FC0180819181B4
:10113000009711F00C949E1E0895CF93DF93EC015D
:1011400088819981009711F00E949E1E1982188251
:101150001D821C821B821A82DF91CF9108950F930A
:101160001F93CF93DF938C01EB01FC018081918170
:1011700068817981009761F06115710539F04281CC
:1011800053812C813D8142175307A0F40E949E1E7B
:1011900088819981F801918380838A819B819383DF
:1011A00082838C819D8195838483198218821B821E
:1011B0001A8207C00E9401208C819D81F8019583CD
:1011C00084831D821C82DF91CF911F910F9108951E
:1011D0000C949E1E0C949E1ECF93DF93EC01DB01BA
:1011E000AB2B81F0FB0101900020E9F73197AF01B3
:1011F000461B570BE881F9810280F381E02DDF91D6
:10120000CF910994DF91CF91089567E571E08BE468
:1012100096E00C94EC08BC018BE496E00E94EC088C
:101220000C9405096F927F928F929F92AF92BF921A
:10123000CF92DF92EF92FF920F931F93CF93DF93A2
:10124000CDB7DEB7A1970FB6F894DEBF0FBECDBF06
:101250003C01142F052F962E872E19A2223008F458
:101260002AE05E0181E2A80EB11CC22ED12CE12C35
:10127000F12C612F702F892D982DA70196010E94C6
:10128000CE21812F902FA92DB82D122F032F942E10
:10129000852E6A3014F5605DF50162935F018C154F
:1012A0009D05AE05BF0528F7BF01C3010E94EC08EC
:1012B000A1960FB6F894DEBF0FBECDBFDF91CF91E0
:1012C0001F910F91FF90EF90DF90CF90BF90AF9064
:1012D0009F908F907F906F900895695CDDCF9F9273
:1012E000AF92BF92CF92DF92EF92FF920F931F9334
:1012F000CF93DF93CDB7DEB72A970FB6F894DEBF52
:101300000FBECDBF89879A87CA01DB0189839A8383
:10131000AB83BC83122F9C01AD01CA01B9010E94AD
:1013200044216AE571E081112FC089819A81AB81E6
:10133000BC81BF778D839E83AF83B8872FEF3FEF4C
:101340004FE75FE7BC01CD010E94442181110EC02F
:101350002FEF3FEF4FE75FE76D817E818F819885AB
:101360000E94E41C6EE571E0181674F02FEF3FEF59
:101370004FE75FE469817A818B819C810E943F21E4
:101380001816BCF462E671E089859A852A960FB634
:10139000F894DEBF0FBECDBFDF91CF911F910F91AB
:1013A000FF90EF90DF90CF90BF90AF909F900C9404
:1013B000EC082FEF3FEF4FE75FEC69817A818B817B
:1013C0009C810E94E41C87FDDDCF20E030E0A90174
:1013D00069817A818B819C810E94E41C87FF0EC009
:1013E0006DE289859A850E94DD0789819A81AB81AA
:1013F000BC81B05889839A83AB83BC8300E060E0F2
:1014000070E080E09FE310135AC029813A814B813C
:101410005C8169837A838B839C8369817A818B81E8
:101420009C810E943220D62EE72EF82E092F698348
:101430007A838B839C8369817A818B819C810E94D2
:101440001021962EA72EB82EC92E2AE0462F572FF0
:10145000682F792F89859A850E9412091123E9F056
:10146000692D7A2D8B2D9C2D0E94E91C9B01AC01CE
:10147000D982EA82FB820C8369817A818B819C818B
:101480000E943120062FF72EE82ED92E6EE2898594
:101490009A850E94DD07111122C02A960FB6F89492
:1014A000DEBF0FBECDBFDF91CF911F910F91FF9097
:1014B000EF90DF90CF90BF90AF909F90089520E085
:1014C00030E040E251E46D837E838F8398876D81A5
:1014D0007E818F8198850E949E200F5F94CF20E0AF
:1014E00030E040E251E40983FA82EB82DC826981D8
:1014F0007A818B819C810E944A1DD62EE72EF82E80
:10150000092F69837A838B839C8369817A818B819C
:101510009C810E94102169837A838B839C83A9819B
:10152000BA81CD01A0E0B0E089839A83AB83BC830C
:101530002AE0AC01BD0189859A850E941209698162
:101540007A818B819C810E94E91C9B01AC01D9822C
:10155000EA82FB820C8369817A818B819C810E9463
:101560003120062FF72EE82ED92E115094CFCF928E
:10157000DF92EF92FF92CF93DF93D82FC92F6A01AA
:101580007B012AE0B701A601F7FE0BC06DE20E94C5
:10159000DD0744275527BA014C195D096E097F09FB
:1015A0002AE08D2F9C2FDF91CF91FF90EF90DF905D
:1015B000CF900C941209AC01990F660B770B8BE45A
:1015C00096E00E94B70A0C9405090C94EC088F92DF
:1015D0009F92AF92BF92CF92DF92EF92FF920F93C2
:1015E0001F93CF93DF93CDB7DEB762970FB6F89412
:1015F000DEBF0FBECDBF89829A82AB82BC82CD8214
:10160000DE82EF82F88609871A872B873C874D8711
:101610005E876F87788B898B9A8B09811A81EB8023
:10162000FC80CD80DE80AF80B88449855A85052E48
:10163000000C660B770B8BE496E00E94B70A66E617
:1016400071E08BE496E00E94E50A8AE0A816B104F6
:1016500034F469EF74E08BE496E00E94E50AA5019A
:10166000BB0C660B770B8BE496E00E94B70A66E62C
:1016700071E08BE496E00E94E50A8AE0C816D10486
:1016800034F469EF74E08BE496E00E94E50AA60169
:10169000DD0C660B770B8BE496E00E94B70A61E2E3
:1016A00075E08BE496E00E94E50A8AE0E816F10412
:1016B00034F469EF74E08BE496E00E94E50AA70138
:1016C000FF0C660B770B8BE496E00E94B70A60EE86
:1016D00072E08BE496E00E94E50A0A30110534F4CA
:1016E00069EF74E08BE496E00E94E50AA801110F0F
:1016F000660B770B8BE496E00E94B70A68E671E010
:101700008BE496E00E94E50A4F85588969897A89B9
:1017100022E08BE496E00E946F096BE671E08BE4B7
:1017200096E00E94E50A4B855C856D857E8522E00A
:101730008BE496E00E946F0962960FB6F894DEBFC4
:101740000FBECDBFDF91CF911F910F91FF90EF9012
:10175000DF90CF90BF90AF909F908F900C94050931
:101760000F931F93CF93DF93EC018B0188819981B5
:10177000009729F02A813B812617370790F4B8019A
:101780006F5F7F4F0E94301FFC0180E0309751F067
:10179000F983E8831B830A838C819D81892B09F45B
:1017A000108281E0DF91CF911F910F910895FF92F8
:1017B0000F931F93CF93DF9300D0CDB7DEB7809107
:1017C0004406882321F08DE691E00E940B09FF2456
:1017D000F3948BE496E00E942701892B41F40F904B
:1017E0000F90DF91CF911F910F91FF9008958BE49F
:1017F00096E00E944A01182F682F8BE496E00E9421
:10180000DD071A3011F01D3029F4F09243060E94D2
:101810000509DFCF19831A82009141061091420613
:101820000F5F1F4FB8018DE396E00E94B00B882335
:1018300081F220913D0630913E06809141069091C3
:101840004206BE016F5F7F4F820F931F0E940120EF
:101850001093420600934106BCCF0E9432018111D1
:101860000C94D70B0895EF92FF920F931F93CF9391
:10187000DF93EC017B018A01BA010E94B00B811158
:1018800009C0CE01DF91CF911F910F91FF90EF9092
:101890000C949D080C831D83B70188819981DF9189
:1018A000CF911F910F91FF90EF900C940120CF9357
:1018B000DF93FC011182108213821282158214823E
:1018C000EB0109900020E9F72197AE01461B570B69
:1018D000DF91CF910C94330CFB01EF2B51F0DB0126
:1018E0000D900020E9F71197AD01461B570B0C94A2
:1018F000330C0C949D08AF92BF92CF92DF92EF927F
:10190000FF920F931F93CF93DF935C016B018A01CA
:10191000E9012417350720F4812F8901C42FD82F1E
:1019200069E571E0C5010E94570CD6011496ED904F
:10193000FC900E151F05C8F4CE15DF0508F47E01D6
:10194000D601ED91FC911197EE0DFF1DC081108223
:101950006D917C91600F711FC5010E946C0CD601C6
:10196000ED91FC91EE0DFF1DC083C501DF91CF917C
:101970001F910F91FF90EF90DF90CF90BF90AF90AD
:10198000089585ED8093BC0080917B0590917C0546
:10199000A0917D05B0917E050796A11DB11D23E0A4
:1019A000B695A795979587952A95D1F72091BC0074
:1019B00024FD03C01092A205089540917B0550912B
:1019C0007C0560917D0570917E05452B462B472B4C
:1019D00069F30097A105B10541F025E32A95F1F7D8
:1019E00000000197A109B109E1CF80917A050C941B
:1019F000A0034F925F926F927F92AF92BF92CF926D
:101A0000DF92EF92FF920F931F93CF93DF93CDB7A7
:101A1000DEB72D970FB6F894DEBF0FBECDBF8C0199
:101A20007B016A018FB7F89440900106509002063E
:101A300060900306709004068FBF80917B019091A7
:101A40007C01A0917D018F839887A98721E043E0E5
:101A500050E0BE01695F7F4FD8011C968D919C912B
:101A60000E94F00781111DC0B12C8B2D2D960FB651
:101A7000F894DEBF0FBECDBFDF91CF911F910F91C4
:101A8000FF90EF90DF90CF90BF90AF907F906F90DE
:101A90005F904F9008956AE070E080E090E00E94CF
:101AA000C100F801848595850E94C80787FDF3CFA2
:101AB00046E050E0BE016F5F7F4FD8011C968D91CC
:101AC0009C910E949105B82E882371F28A819B8196
:101AD000982789279827A0E0B0E024E0880F991F75
:101AE000AA1FBB1F2A95D1F7AC802A2D22952F70F3
:101AF000AC01BD01422B4A875B876C877D87CB0198
:101B0000BA010E94E91C20E030E048EC52E46A8708
:101B10007B878C879D876A857B858C859D850E94C8
:101B20004A1D20E030E040E855E36A877B878C87D8
:101B30009D876A857B858C859D850E944A1DD8017D
:101B400014966D937D938D939C9317974A2D4F70A8
:101B500050E060E070E0762F652F542F44278D8190
:101B6000482B762F652F542F44272E81DB01CA0185
:101B7000822B8A879B87AC87BD87BC01CD010E94E1
:101B8000E91C20E030E048E453E46A877B878C87D7
:101B90009D876A857B858C859D850E944A1D20E0F6
:101BA00030E040E855E36A877B878C879D876A85AC
:101BB0007B858C859D850E944A1D20E030E048E4AD
:101BC00052E46A877B878C879D876A857B858C85B5
:101BD0009D850E943120D8016D937D938D939C93B8
:101BE0001397C114D10481F1F601349680E2DF012C
:101BF0001D928A95E9F784E290E0A0E0B0E0F6015A
:101C000080839183A283B383D8011A968D919C918E
:101C1000A0E0B0E084839583A683B7838DE090E055
:101C2000A0E0B0E080879187A287B387408A518A7D
:101C3000628A738AF80180819181A281B381F60161
:101C4000848B958BA68BB78BE114F10409F40DCF2F
:101C5000F701349680E2DF011D928A95E9F784E26C
:101C600090E0A0E0B0E0F70180839183A283B3838A
:101C7000D80118968D919C91A0E0B0E08483958363
:101C8000A683B7838DE090E0A0E0B0E080879187E5
:101C9000A287B387408A518A628A738AF801848155
:101CA0009581A681B781F701848B958BA68BB78B25
:101CB000DCCE40E050E0FC01858196810E94F90C69
:101CC00081E00895AB0160E070E0FC0185819681C0
:101CD0000E94F90C81E008950F931F93CF93DF9337
:101CE0008C01EB01FB013B968DE1DF011D928A9592
:101CF000E9F74BE050E06EE771E0CE010E9408206A
:101D000081E090E0A0E0B0E08C879D87AE87BF8740
:101D1000F80183819481092E000CAA0BBB0B888BE0
:101D2000998BAA8BBB8B8CE090E0A0E0B0E08C8B11
:101D30009D8BAE8BBF8B80E090E0A8ECB2E4888FE7
:101D4000998FAA8FBB8F80E090E0A0E0B0E488A3D9
:101D500099A3AAA3BBA3DF91CF911F910F910895DF
:101D60000F931F93CF93DF938C01EB01FB013B9605
:101D70008DE1DF011D928A95E9F74BE050E066E8BE
:101D800071E0CE010E94082081E090E0A0E0B0E088
:101D90008C879D87AE87BF87F80183819481092E48
:101DA000000CAA0BBB0B888B998BAA8BBB8B8DE08D
:101DB00090E0A0E0B0E08C8B9D8BAE8BBF8B80E081
:101DC00090E0A0E2B2EC8C8F9D8FAE8FBF8F80E051
:101DD00090E0AAEAB2E4888F998FAA8FBB8F8AE934
:101DE00099E9A9E9BEE388A399A3AAA3BBA3DF91BC
:101DF000CF911F910F9108950F931F93CF93DF936E
:101E0000CDB7DEB762970FB6F894DEBF0FBECDBF79
:101E10008C01CB01F801118210821382128215828B
:101E200014824AE0BE016F5F7F4F0E949A1CBE0180
:101E30006F5F7F4FC8010E946C0C62960FB6F894DA
:101E4000DEBF0FBECDBFDF91CF911F910F910895DF
:101E5000BC018091090690910A06892B39F481E032
:101E6000FB019081992309F080E008958091050697
:101E7000909106060E94F81F9C0181E02115310512
:101E8000F2CF009711F00C94701C60E070E0CB0171
:101E90000895CF92DF92EF92FF920F931F93CF930B
:101EA000DF93CDB7DEB72C970FB6F894DEBF0FBE29
:101EB000CDBF6BE671E0CE0101967C010E94570C0C
:101EC0008091490690914A066701892B91F4C601D9
:101ED0000E9495088EE891E00E940B0965E476E087
:101EE0008BE496E00E94E4070E9405090FEF1FEFC4
:101EF00042C0009145061091460669817A81C80169
:101F00000E941720009719F3801B910B8C01C701C9
:101F10000E94950810161106ECF6980140E050E07A
:101F200065E476E0C7010E947B0C7E0197E0E90E34
:101F3000F11C2091490630914A06A8014F5F5F4F7E
:101F400065E476E0C7010E947B0C6F81788561159E
:101F5000710509F14B855C8585E496E00E94330CA0
:101F600089819A810E94410F8B01C7010E949508C7
:101F7000C6010E949508C8012C960FB6F894DEBFE2
:101F80000FBECDBFDF91CF911F910F91FF90EF90CA
:101F9000DF90CF90089585E496E00E949D08E0CF01
:101FA0001F921FB61F9211242F933F938F939F93DD
:101FB000AF93BF938091010690910206A091030612
:101FC000B09104063091000623E0230F2D3750F521
:101FD0000196A11DB11D20930006809301069093E8
:101FE0000206A0930306B09304068091FC0590912D
:101FF000FD05A091FE05B091FF050196A11DB11D43
:102000008093FC059093FD05A093FE05B093FF051A
:10201000BF91AF919F918F913F912F911F901FBEC4
:102020001F90189526E8230F0296A11DB11DD3CF4E
:102030002F932FB72F938F939F93EF93FF93E0915D
:102040005B06F0915C068081E0916106F09162068A
:1020500082FD19C09081809164068F5F8F732091FB
:102060006506821741F0E0916406F0E0E55BF94F08
:10207000958F80936406FF91EF919F918F912F919F
:102080002FBF2F9118958081F6CF1F920F920FB618
:102090000F9211242F933F934F935F936F937F93EE
:1020A0008F939F93AF93BF93EF93FF938BE496E04F
:1020B0000E940501FF91EF91BF91AF919F918F9188
:1020C0007F916F915F914F913F912F910F900FBE34
:1020D0000F901F9018951F920F920FB60F92112418
:1020E0002F933F934F935F936F937F938F939F9320
:1020F000AF93BF93EF93FF939091B900892F887F9F
:10210000803509F4C0C008F042C0803309F4B6C07D
:1021100098F5883101F1D0F4883009F4A7C08031F6
:1021200009F4A4C0882309F4F0C0FF91EF91BF9196
:10213000AF919F918F917F916F915F914F913F915F
:102140002F910F900FBE0F901F901895803209F4B9
:1021500095C0883251F79091770580917605981750
:1021600078F5E091770581E08E0F80937705F0E0B8
:10217000EA5AFA4F80817CC0803409F490C08834D8
:1021800009F47EC0883389F6809355056DC0803A86
:1021900009F49FC0B8F5803809F489C050F580363D
:1021A00011F1D8F4883509F6E091770581E08E0FBA
:1021B000809377058091BB00F0E0EA5AFA4F808364
:1021C0008091A10581115CC081E08093A00584EA23
:1021D0008093BC001092A205A8CF803721F0987E92
:1021E000983609F0A2CF83E08093A205109254059F
:1021F00041C0803909F45BC0987E983809F095CFCA
:1022000085E839C0883BD9F058F5883A19F0803B09
:1022100009F08BCF84E08093A205109231051092D3
:102220009F05E0912F05F0913005099580919F055C
:10223000811105C081E080939F0510927F05E09198
:10224000310581E08E0F80933105F0E0E158FA4FBF
:1022500080818093BB009091310580919F0523C0C0
:10226000907F903C09F061CF85ECB2CF80917805EA
:102270008093BB0085EC8093BC0057CF80935505BD
:102280000E94C10C52CFE091770581E08E0F8093C0
:1022900077058091BB00F0E0EA5AFA4F8083909175
:1022A000770580917605981708F0AACFE3CF809143
:1022B0005405803208F0A4CFE091540581E08E0FE0
:1022C000809354058091BB00F0E0EC5CFA4F808372
:1022D000D1CF85EC8093BC001092A205809154056B
:1022E000803230F4E0915405F0E0EC5CFA4F10825B
:1022F0006091540570E0E0913205F091330584E37C
:1023000095E009951092540510CF10925505B8CF5D
:1023100085E496E00E94950885E096E00E94950885
:102320008DE396E00E9495088091390690913A06D7
:10233000009739F0DC01ED91FC910280F381E02DF2
:10234000099580913B0690913C06009739F0DC019D
:10235000ED91FC910280F381E02D09940895CDB7B1
:10236000DEB7CF5AD1090FB6F894DEBF0FBECDBF8E
:10237000789484B5826084BD84B5816084BD85B560
:10238000826085BD85B5816085BD80916E0081606C
:1023900080936E0010928100809181008260809312
:1023A0008100809181008160809381008091800014
:1023B0008160809380008091B10084608093B1003F
:1023C0008091B00081608093B00080917A00846039
:1023D00080937A0080917A00826080937A00809165
:1023E0007A00816080937A0080917A00806880937F
:1023F0007A001092C100E0915B06F0915C0682E0E9
:102400008083E0915706F09158061082E0915906BA
:10241000F0915A0680E1808310926306E0915F0696
:10242000F091600686E08083E0915D06F0915E06A3
:10243000808180618083E0915D06F0915E068081FD
:1024400088608083E0915D06F0915E0680818068FF
:102450008083E0915D06F0915E0680818F7D8083B0
:102460008DE991E00E940B090E941E0782E00E9404
:1024700026076BEA71E083E196E00E94E50A81E0BD
:102480000E9410074091110650911206052E000C73
:10249000660B770B83E196E00E94B70A64EB71E06C
:1024A00083E196E00E94E50A68EE73E080E090E048
:1024B0000E94C1000E941E076BEB71E083E196E071
:1024C0000E94E50A8BEC91E00E940B098091F405D3
:1024D0009091F505009711F00E949E1E86E090E015
:1024E0000E94081EFC0188E6808388EE95E09283B6
:1024F0008183138280E290E095838483F093F505D5
:10250000E093F405CF010E946805811113C00E9479
:102510001E0762EE71E083E196E00E94E50A81EF1A
:1025200091E00E940B0968EE73E080E090E00E9469
:10253000C100F9CF0E941E0769E272E083E196E0D4
:102540000E94E50A64E670E080E090E00E94C1002D
:1025500083E392E00E940B096BE472E083E196E072
:102560000E94E50A64E170E080E090E00E94C10012
:102570008091370690913806009711F00E949E1EB8
:1025800086E090E00E94081EFC0188E3808388EECC
:1025900095E092838183138280E290E09583848327
:1025A000F0933806E0933706CF010E946805811149
:1025B00013C00E941E076CE572E083E196E00E9462
:1025C000E50A8CE692E00E940B0968EE73E080E079
:1025D00090E00E94C100F9CF8AEB898321E041E0BD
:1025E00050E0CE010196C557DF4F99838883CB58C1
:1025F000D040BC0180913706909138060E94F007C8
:102600008823B9F264E170E080E090E00E94C100AC
:1026100081EE898388E08A831B8221E043E050E0D9
:10262000BE016F5F7F4F80913706909138060E9400
:10263000F0070BE216E0882309F4BBCF8091370640
:10264000909138060E94C80787FD9EC0809137068A
:10265000909138060E94C80783FFABCF87E090E0D7
:102660000E94081EFC018DE491E09183808380E24A
:1026700090E19483838316830583F0933C06E09373
:102680003B0687E090E00E94081EFC018FE391E08A
:102690009183808381E290E1948383831683058311
:1026A000F0933A06E09339060E941E0766EA72E04C
:1026B00083E196E00E94E50A64E670E080E090E045
:1026C0000E94C10069E073E08BE496E00E94E50A95
:1026D00080E090E00E94F62190E09093F7058093CF
:1026E000F6050E94DB0A81E090E00E94F62190E06E
:1026F000909303018093020166E173E08BE496E01E
:102700000E94E50A80910201909103010E94DB0A78
:102710000E941E0760EB72E083E196E00E94E50AEA
:1027200086EB92E00E940B09CE0101960E941E08E2
:102730008E8190E09093F9058093F8056CE474E045
:1027400080E090E00E94C10010920401CE01019649
:102750000E941E088E8190E02091F8053091F905C5
:1027600082179307C1F481E08093040181E00E9405
:10277000100767EC72E083E196E00E94E50A83EDC2
:1027800092E00E940B090BC06AE070E080E090E0EC
:102790000E94C10053CF809104018111E7CFFE0157
:1027A000EB57FF4FC357DF4FF983E883CD58D04035
:1027B000C357DF4FF881CD58D040C455DF4FF88361
:1027C000CC5AD040C257DF4F2881CE58D040C35595
:1027D000DF4F2883CD5AD040CE0181589F4FC1573B
:1027E000DF4F99838883CF58D040C157DF4F9881FE
:1027F000CF58D040C255DF4F9883CE5AD040C057F3
:10280000DF4FE881C059D040C155DF4FE883CF5A30
:10281000D04029E430E02C0F3D1F2E5E3F4FC655BF
:10282000DF4F39832883CA5AD040809143068823DA
:1028300009F484C01092430669E571E0CE01875B1C
:102840009F4F0E94570C69E571E0CE0185960E946A
:10285000570C61E275E0CE0101960E94570C809101
:10286000410690914206892B09F445C1E0903D064E
:10287000F0903E0669817A81C7010E9417208C0181
:10288000892B09F438C10E191F09CE0101960E9447
:102890009508980140E050E06DE376E0CE010196A6
:1028A0000E947B0CBE016F5F7F4F85E096E00E9427
:1028B000AF08CE0101960E94950820914106309103
:1028C0004206A8014F5F5F4F6DE376E0CE010196AF
:1028D0000E947B0CBE016F5F7F4F85E496E00E94F3
:1028E000AF08CE0101960E94950882EE92E00E9408
:1028F000280F882309F408C180914406882309F42D
:10290000FDC01092440668EE72E08BE496E00E94EF
:10291000E50A68EE73E080E090E00E94C10069E59E
:1029200071E08DE396E00E946C0CCE0185960E94CA
:102930009508CE01875B9F4F0E9495080E94D70B98
:10294000AE014F5F5F4FBE016B5D7F4F8BE296E044
:102950000E94F90C89ADC456DF4F8883CC59D04012
:102960009AADC356DF4F9883CD59D040EBADC256D8
:10297000DF4FE883CE59D040FCADC156DF4FF8831E
:10298000CF59D0402D89CB56DF4F2883C559D04031
:102990003E89C956DF4F3883C759D0408F89C85602
:1029A000DF4F8883C859D040988DC756DF4F988332
:1029B000C959D040C456DF4F7881CC59D040C35656
:1029C000DF4F6881CD59D040272F362F4E2F5F2FF4
:1029D000CF56DF4F7883C159D040CE56DF4F688342
:1029E000C259D040CD56DF4FE883C359D040CC56B2
:1029F000DF4FF883C459D040CF56DF4F68817981CB
:102A00008A819B81C159D0400E9444218823B1F022
:102A1000C456DF4F1882CC59D040C356DF4F1882BE
:102A2000CD59D040E6ECC256DF4FE883CE59D040B6
:102A3000F2ECC156DF4FF883CF59D040CB56DF4F71
:102A40007881C559D040C956DF4F6881C759D040F9
:102A5000C856DF4F9881C859D040C756DF4F88818C
:102A6000C959D040272F362F492F582FCF56DF4F27
:102A70007883C159D040CE56DF4F6883C259D040C9
:102A8000CD56DF4F9883C359D040CC56DF4F888353
:102A9000C459D040CF56DF4F688179818A819B81AC
:102AA000C159D0400E94442181112CC220E030E065
:102AB000A901CF56DF4F688179818A819B81C159F5
:102AC000D0400E94E41C811133C20E941E076DEEAB
:102AD00074E083E196E00E94E50A64EF71E080E033
:102AE00090E00E94C1000E943201882309F49DCE2B
:102AF0000E94D70B9ACE0FEF1FEFC7CE81E08093D5
:102B0000440663EF72E001CF81E095E00E94280F58
:102B1000882309F47DC00E94490F8C0197FDAAC14A
:102B20000E94490F7C0197FDA5C10E94490F6C01CD
:102B300097FDA0C10E94490F5C0197FD9BC10E94B7
:102B4000490F4C0197FD96C180914506909146062C
:102B50000E94410F2B0177FD8DC1862F582D4A2DE4
:102B60003C2D2E2D003D97E0190714F0005D174015
:102B700095E0C557DF4FE881F981CB58D0401192DD
:102B80009A95E9F7EAE06E2F0E949A21982F990F03
:102B9000980F990F940D9A83852F0E949A21982F50
:102BA000990F980F990F980D9B83842F0E949A215B
:102BB000982F990F980F990F9A0D9C83832F0E943D
:102BC0009A21982F990F980F990F9C0D9E83822F11
:102BD0000E949A21982F990F980F990F9E0D9F830D
:102BE000802F0E949A21982F990F980F990F900F7C
:102BF000988721E048E050E0BE016F5F7F4F8091F1
:102C0000F4059091F5050E94F0071092040187CE1B
:102C10008FEF92E00E94280F882309F4C9C08091A9
:102C200011069091120662E170E00E94A621CB5637
:102C3000DF4F79836883C559D0408091440688234B
:102C400051F163E073E08BE496E00E94E50A80E0D6
:102C500090E00E94F621482F50E060E070E02AE00A
:102C60008BE496E00E9412090E94050960E173E07E
:102C70008BE496E00E94E50A81E090E00E94F62154
:102C8000482F50E060E070E02AE08BE496E00E947C
:102C900012090E94050980E090E00E94F621682E4A
:102CA000712C8DE193E00E940B09212C312C210124
:102CB000CB56DF4F28813981C559D04022163306C3
:102CC00008F02DCEFFEF6F1A7F0ACB56DF4F288119
:102CD0003981C559D0402615370514F4621A730A94
:102CE00032E1369D6001379DD00C112486010E5FC4
:102CF0001F4FCE0101967C0194E1C90ED11CC80181
:102D00000E94F621F70181937F010F5F1F4FC016CC
:102D1000D106A9F789819A812B813C81820F931F6B
:102D20002D813E81820F931F2F813885820F931F43
:102D300029853A85820F931F0597A4F18091440657
:102D40008823E1F02AE0B201A1018BE496E00E9421
:102D5000120961E275E08BE496E00E94E50AA301A6
:102D6000072C000C660B770B8BE496E00E94B70AE9
:102D700061E275E08BE496E00E94E50A89809A8022
:102D8000AB80BC80CD80DE80EF80F88409851A8519
:102D90002B853C854D855E856F85788989899A89E3
:102DA0000E94E70AFFEF2F1A3F0A4F0A5F0A80CFFF
:102DB00088E393E00E94280F8823D9F18FE393E002
:102DC0000E940B0960E080E090E00E94FE211092DA
:102DD000F7051092F60564E081E090E00E94FE2184
:102DE00082E0C82ED12CE12CF12C8091110690911B
:102DF0001206C816D9060CF092CDB701A6018BE4D5
:102E000096E00E94B70A66E671E08BE496E00E94C5
:102E1000E50A80911106909112060E94DB0A60E09B
:102E2000C6010E94FE213FEFC31AD30AE30AF30A48
:102E3000DCCF82E593E00E94280F882309F444C088
:102E400080914506909146060E94410FCB011816CD
:102E500019065CF16CE573E08BE496E00E94E50AEC
:102E600065E476E08BE496E00E94E40780EA93E074
:102E70000E940B0984EF93E00E940B0988E094E024
:102E80000E940B0986E394E00E940B098BE794E013
:102E90000E940B0981EA94E00E940B098FEB94E0F9
:102EA0000E940B090E9405093ACD709303016093BB
:102EB000020181E090E00E94FE2180E19EE090937B
:102EC0000101809300012BCD82EA93E00E94280F3C
:102ED000882381F280914506909146060E94410F19
:102EE000CB01181619061CF06EEA73E0B5CF70938B
:102EF00003016093020181E090E00E94FE218CE3D7
:102F000090E0DDCFCB56DF4F1882C559D040C9566F
:102F1000DF4F1882C759D04026ECC856DF4F2883B0
:102F2000C859D04032ECC756DF4F3883C959D0401A
:102F3000CE01875B9F4F0E941E0886E0FE01E75B83
:102F4000FF4FABE0B6E001900D928A95E1F78091DA
:102F5000100690E09093F9058093F80580910F0694
:102F6000CC55DF4F8883C45AD040E82FF0E0CF56CD
:102F7000DF4FF983E883C159D04020910E06C85530
:102F8000DF4F2883C85AD040822F90E0C656DF4FCB
:102F900099838883CA59D040E0910D06C755DF4F09
:102FA000E883C95AD0402E2F30E0C056DF4F398316
:102FB0002883C05AD04020900C06822D90E0CE5538
:102FC000DF4F99838883C25AD04030900B06E32D9F
:102FD000F0E0CA55DF4FF983E883C65AD0408091AC
:102FE000FA059091FB056CE370E00E94BA21892BF1
:102FF00009F0A7C0CF56DF4F8880C159D040CE56C8
:10300000DF4F9880C259D040CF56DF4F2881398199
:10301000C159D040AF963FAF2EAFAF97C656DF4FE6
:10302000A880CA59D040C556DF4FB880CB59D04090
:10303000C656DF4F88819981CA59D040E1969FAF2B
:103040008EAFE197C056DF4FC880C05AD040CF55F1
:10305000DF4FD880C15AD040C056DF4FE881F98198
:10306000C05AD040E396FFAFEEAFE397CE55DF4FA7
:10307000E880C25AD040CD55DF4FF880C35AD040C7
:10308000CE55DF4F28813981C25AD040E5963FAFF7
:103090002EAFE597CA55DF4F0881C65AD040C955B3
:1030A000DF4F1881C75AD040CA55DF4F88819981B8
:1030B000C65AD040E7969FAF8EAFE797C456DF4F12
:1030C000F881CC59D040C356DF4FE881CD59D0406C
:1030D000C256DF4F7881CE59D040C156DF4F68814C
:1030E000CF59D0402F2F3E2F472F562F8F2F9E2F57
:1030F000A72FB62FEB968CAF9DAFAEAFBFAFEB97C0
:10310000CB56DF4FF881C559D040C956DF4FE88113
:10311000C759D040C856DF4F8881C859D040C756DC
:10312000DF4F9881C959D0406F2F7E2F4F2E5E2ED2
:103130003C01EF964CAE5DAE6EAE7FAEEF970E9457
:10314000E70A8091FA059091FB0566E070E00E9425
:10315000BA21892B09F05CC0109104010E941E075E
:1031600082E00E94260780E00E941007112309F4E4
:1031700040C26BEF74E083E196E00E94E50A81E0D3
:103180000E94100722E0CB56DF4FE881C559D0409E
:10319000C956DF4F3881C759D040C856DF4F988194
:1031A000C859D040C756DF4F8881C959D0404E2FEB
:1031B000532F692F782F83E196E00E946F0967E013
:1031C00075E083E196E00E94E50A22E0C456DF4FF5
:1031D000E881CC59D040C356DF4F3881CD59D0401B
:1031E000C256DF4F9881CE59D040C156DF4F8881FB
:1031F000CF59D0404E2F532F692F782F83E196E07F
:103200000E946F096AE075E083E196E00E94E50A9A
:103210008091F6059091F70532E1389F7001399F52
:10322000F00C112487010E5F1F4F4E018BE5880EB5
:10323000911C94E1E90EF11C5401C8010E94F62191
:10324000F40181934F010F5F1F4FE016F106A9F7BC
:103250008091F805CB57DF4F3882C558D040CA5708
:10326000DF4F2882C658D040C755DF4FF881C95A72
:10327000D040C957DF4FF883C758D040C855DF4FFB
:103280002881C85AD040C857DF4F2883C858D0403B
:10329000CC55DF4F3881C45AD040C757DF4F3883F1
:1032A000C958D040C657DF4F8883CA58D040F5016F
:1032B0006080718022813381CC55DF4F3983288330
:1032C000C45AD040048115812680378040845184BF
:1032D000920190ED491697E0590610F0205D3740B5
:1032E000C158DF4F2883CF57D040C058DF4F2882C6
:1032F000C058D040CF57DF4F0883C158D040CC557D
:10330000DF4FE881C45AD040CE57DF4FE883C25820
:10331000D040CD57DF4F6882C358D040CC57DF4FE5
:103320008883C458D040C455DF4F8881CC5AD040E0
:10333000C355DF4F9881CD5AD0400E94BA024B014D
:103340005C01C255DF4F8881CE5AD040C155DF4F56
:103350009881CF5AD0400E94BA026B017C018091C3
:103360000401811136C14091020150910301209165
:10337000000130910101429FC001439F900D529F77
:10338000900D1124092E000CAA0BBB0B8C189D0864
:10339000AE08BF0888159905AA05BB059CF0CC5559
:1033A000DF4F28813981C45AD040620E731E600EEF
:1033B000711E620C731C640C751C35E0631671047D
:1033C0000CF007C1CF56DF4F88819981C159D04099
:1033D0002B969FAF8EAF2B97C656DF4FE881F981B2
:1033E000CA59D0402D96FFAFEEAF2D97C056DF4F94
:1033F00028813981C05AD0402F963FAF2EAF2F97EA
:10340000CE55DF4F88819981C25AD04061969FAFD7
:103410008EAF6197CA55DF4FE881F981C65AD04017
:103420006396FFAFEEAF6397C456DF4F5881CC5918
:10343000D040C356DF4F4881CD59D040C256DF4FF0
:103440003881CE59D040C156DF4F2881CF59D04066
:10345000852F942FA32FB22F67968CAF9DAFAEAF61
:10346000BFAF6797CB56DF4F5881C559D040C9567B
:10347000DF4F4881C759D040C856DF4F3881C859FF
:10348000D040C756DF4F2881C959D040852F942F8F
:10349000A32FB22F6B968CAF9DAFAEAFBFAF6B9724
:1034A0006DE075E08BE496E00E94E50A80E090E034
:1034B0000E94F62190E001969093F7058093F6051F
:1034C00042E1489F9001499F300D1124C9010296A5
:1034D00020911106309112062817390720F4109216
:1034E000F7051092F6056091F60580E090E00E94E5
:1034F000FE218091F6059091F7050E94DB0A8091EC
:10350000F6059091F70522E1289F8001299F100D73
:1035100011240E5F1F4F9E01275B3F4F7901F7017A
:10352000D0803FEFE31AF30AC8010E94F621D816B3
:1035300021F06D2DC8010E94FE210F5F1F4FC6555F
:10354000DF4F88819981CA5AD040E816F90639F7C9
:1035500080E00E94100763E275E083E196E00E943C
:10356000E50A2A968FAC2A972B969FAC2B972C9620
:10357000AFAC2C972D96BFAC2D972E96CFAC2E9737
:103580002F96DFAC2F976096EFAC60976196FFACFB
:10359000619762960FAD629763961FAD63976496CD
:1035A0002FAD649765963FAD659766964FAD66976C
:1035B00067965FAD679768966FAD689769967FADC0
:1035C00069976A968FAD6A976B969FAD6B970E94CD
:1035D000E70A68EE73E080E090E00E94C10080910D
:1035E000FA059091FB0501969093FB058093FA05EF
:1035F0007ACAC056DF4F68817981C05AD040CE0167
:10360000875B9F4F0E94FC0EBE01675B7F4F83E18B
:1036100096E00E94E407CE01875B9F4F0E949508C9
:1036200066E671E083E196E00E94E50ACE55DF4F41
:1036300068817981C25AD040CE01875B9F4F0E943A
:10364000FC0EBE01675B7F4F83E196E00E94E407BA
:10365000CE01875B9F4F0E94950861E275E083E190
:1036600096E00E94E50AC656DF4FE881F981CA5903
:10367000D0403A9734F469EF74E083E196E00E9419
:10368000E50AC656DF4F68817981CA59D040CE011C
:10369000875B9F4F0E94FC0EBE01675B7F4F83E1FB
:1036A00096E00E94E407CE01875B9F4F0E94950839
:1036B00060EE72E083E196E00E94E50ACF56DF4FAC
:1036C00028813981C159D0402A30310534F469EF5D
:1036D00074E083E196E00E94E50ACF56DF4F6881EF
:1036E0007981C159D040CE01875B9F4F0E94FC0E6B
:1036F000BE01675B7F4F83E196E00E94E407CE0145
:10370000875B9F4F0E94950860EE72E083E196E030
:103710000E94E50A8091F8059091F9050A9734F422
:1037200069EF74E083E196E00E94E50A6091F80594
:103730007091F905CE01875B9F4F0E94FC0EBE0180
:10374000675B7F4F83E196E00E94E407CE01875BD1
:103750009F4F0E94950813CD1092EB051092EA0539
:1037600088EE93E0A0E0B0E08093EC059093ED0547
:10377000A093EE05B093EF052FE031E03093E9051B
:103780002093E80510924E0610924D0680934F0646
:1037900090935006A0935106B093520681E291E0B7
:1037A00090934C0680934B0685EC90E090935806DE
:1037B0008093570684EC90E090935A0680935906C4
:1037C00080EC90E090935C0680935B0681EC90E047
:1037D00090935E0680935D0682EC90E09093600685
:1037E00080935F0686EC90E090936206809361067A
:1037F0001092640610926506109266061092670693
:10380000109238061092370610923A061092390636
:1038100010923C0610923B06109216061092150666
:1038200083E391E0909314068093130682E08093E3
:1038300017068FEF8093180683E08093190684E0C3
:1038400080931A0685E080931B0686E080931C0611
:1038500087E080931D0610921E0610921F0610929C
:103860002006109221061092220681E00E9426076F
:1038700080E094E090931206809311061092100657
:1038800010920F0610920E0610920B06E8EBF0E075
:1038900081E024913196823029F42F3F51F493E056
:1038A000892FF7CF91E0980F211103C09C30C1F709
:1038B0008CE080930C0681E080930D0669E571E051
:1038C0008DE396E00E94570C69E571E085E096E093
:1038D0000E94570C69E571E085E496E00C94570C62
:1038E0001F93FC0199278827BC01E894119110329D
:1038F000E9F3193010F01E30C8F31B3251F01D32BD
:1039000049F4689406C00E94A51C610F711D811DB9
:10391000911D119110531A30B0F33EF4909580959B
:10392000709561957F4F8F4F9F4F1F910895F89429
:103930000C940C22BB274A3031F4992322F4BDE2C7
:10394000909581959F4F0C94BB1C592F482F372F72
:10395000262F660F771F881F991F660F771F881FF6
:10396000991F620F731F841F951F660F771F881F93
:10397000991F0895BB27FB015527AA27880F991F78
:10398000AA1FA41710F0A41B83955051B9F7A05D8E
:10399000AA3308F0A95DA193009779F7B111B1930B
:1039A0001192CB010C94D41CDC01FC01672F7191A6
:1039B0007723E1F7329704C07C916D937083629115
:1039C000AE17BF07C8F308950E94261D08F481E0D2
:1039D0000895E89409C097FB3EF490958095709502
:1039E00061957F4F8F4F9F4F9923A9F0F92F96E94B
:1039F000BB279395F695879577956795B795F111C0
:103A0000F8CFFAF4BB0F11F460FF1BC06F5F7F4F5C
:103A10008F4F9F4F16C0882311F096E911C077236E
:103A200021F09EE8872F762F05C0662371F096E877
:103A3000862F70E060E02AF09A95660F771F881F46
:103A4000DAF7880F9695879597F90895990F0008EA
:103A5000550FAA0BE0E8FEEF16161706E807F90760
:103A6000C0F012161306E407F50798F0621B730BFB
:103A7000840B950B39F40A2661F0232B242B252B7C
:103A800021F408950A2609F4A140A6958FEF811D1F
:103A9000811D08950E945D1D0C94CE1D0E94C01DC5
:103AA00038F00E94C71D20F0952311F00C94B71D2B
:103AB0000C94BD1D11240C94021E0E94DF1D70F396
:103AC000959FC1F3950F50E0551F629FF001729FC3
:103AD000BB27F00DB11D639FAA27F00DB11DAA1FD2
:103AE000649F6627B00DA11D661F829F2227B00D1F
:103AF000A11D621F739FB00DA11D621F839FA00DAA
:103B0000611D221F749F3327A00D611D231F849FF9
:103B1000600D211D822F762F6A2F11249F57504050
:103B20009AF0F1F088234AF0EE0FFF1FBB1F661FCB
:103B3000771F881F91505040A9F79E3F510580F094
:103B40000C94B71D0C94021E5F3FE4F3983ED4F32F
:103B5000869577956795B795F795E7959F5FC1F738
:103B6000FE2B880F911D9695879597F9089597F9E3
:103B70009F6780E870E060E008959FEF80EC089513
:103B800000240A941616170618060906089500243C
:103B90000A9412161306140605060895092E0394B6
:103BA000000C11F4882352F0BB0F40F4BF2B11F42A
:103BB00060FF04C06F5F7F4F8F4F9F4F089557FD89
:103BC0009058440F551F59F05F3F71F04795880F8B
:103BD00097FB991F61F09F3F79F087950895121622
:103BE00013061406551FF2CF4695F1DF08C01616CE
:103BF00017061806991FF1CF86957105610508947F
:103C00000895E894BB2766277727CB0197F9089595
:103C10000F931F93CF93DF939C01029710F422E040
:103C200030E0E091E806F091E90690E080E0B0E055
:103C3000A0E0309791F4009709F445C0821B930BE4
:103C400084309105B8F58A819B816115710569F110
:103C5000FB0193838283FE0111C040815181028167
:103C6000138142175307F0F04217530799F4109746
:103C700061F012960C93129713961C933296CF0113
:103C8000DF91CF911F910F9108950093E806109353
:103C9000E906F4CF009719F04817590718F4CA013C
:103CA000BD01EF01DF01F801C4CF9093E9068093D5
:103CB000E806D1CFFE01E80FF91F21933193029757
:103CC00099838883DCCF8091EA069091EB06892B5B
:103CD00041F480910701909108019093EB06809345
:103CE000EA068091050190910601009741F48DB795
:103CF0009EB74091090150910A01841B950B409198
:103D0000EA065091EB064817590708F0B8CF841B14
:103D1000950B8217930708F4B2CFB9016E5F7F4FFE
:103D20008617970708F4ABCF640F751F7093EB06E7
:103D30006093EA06FA0121933193A1CFCF93DF93E9
:103D40009C010097E9F0FC01329713821282C09126
:103D5000E806D091E906DE0190E080E02097A1F42A
:103D600080819181280F391F8091EA069091EB069E
:103D70008217930709F067C0F093EB06E093EA0619
:103D8000DF91CF910895DA01AE17BF0708F041C067
:103D900012964D915C911397CD014115510599F7FC
:103DA000DC011396FC93EE9312974D915D91A40F55
:103DB000B51FEA17FB0781F4208131812E5F3F4F49
:103DC000240F351FDC0111963C932E932281338101
:103DD00013963C932E931297B0E0A0E08A819B81CA
:103DE0000097B1F5FE0181919191E80FF91F809143
:103DF000EA069091EB068E179F0711F6109759F57A
:103E00001092E9061092E806D093EB06C093EA06FA
:103E1000B7CFB383A28340815181240F351FA217EE
:103E2000B30771F44E5F5F4F2D913C911197240FB2
:103E3000351F3183208312962D913C913383228349
:103E4000009709F0ADCFF093E906E093E80698CF2C
:103E5000DE01EC01C3CF13961C921E921297D4CFB1
:103E6000B0E0A0E0E6E3FFE10C945621EC01CB01C9
:103E7000209749F40E94081EEC01CE01CDB7DEB7B1
:103E8000E0E10C947221FE01E60FF71F9E01225023
:103E90003109E217F30708F49FC0D9010D911C9175
:103EA000119706171707A8F00530110530F3A80180
:103EB000445051094617570700F3061B170B0250D1
:103EC0001109019311936D937C93CF010E949E1E63
:103ED000D4CF4B01801A910A5E01A00EB11EA091B1
:103EE000E806B091E906512C412CF12CE12C1097F9
:103EF00039F54091EA065091EB064A155B0509F049
:103F00005DC04816590608F059C04091050150910E
:103F100006014115510541F44DB75EB760910901A5
:103F200070910A01461B570BE417F50708F054C0BF
:103F3000F093EB06E093EA06F901918380839DCF2D
:103F40004D915C91119712966C90129713967C90FC
:103F50001397AA15BB0559F56A0162E0C60ED11C7C
:103F6000C814D90420F1B801681B790B640F751FC0
:103F7000DB011296159780F06282738271836083F1
:103F8000D9018D939C93E114F10461F0D70113964C
:103F9000FC93EE93129771CFC8010296840F951F80
:103FA000F301EECFF093E906E093E80666CF4416FE
:103FB000550608F42A017D01D30199CF0E94081EFD
:103FC0007C01009749F0A801BE010E94EF1FCE01BD
:103FD0000E949E1EE70151CFD0E0C0E04ECFFB0112
:103FE000DC0102C001900D9241505040D8F7089575
:103FF000FB01DC018D91019080190110D9F3990B1F
:104000000895FB01DC0101900D920020E1F7089575
:10401000FB01DC014150504048F001900D9200201E
:10402000C9F701C01D9241505040E0F70895FB01CF
:1040300051915523A9F0BF01DC014D914517411164
:10404000E1F759F4CD010190002049F04D91401560
:104050004111C9F3FB014111EFCF81E090E00197DD
:1040600008955058BB27AA270E9449200C94CE1DC2
:104070000E94C01D38F00E94C71D20F039F49F3FF8
:1040800019F426F40C94BD1D0EF4E095E7FB0C9496
:10409000B71DE92F0E94DF1D58F3BA176207730797
:1040A0008407950720F079F4A6F50C94011E0EF410
:1040B000E0950B2EBA2FA02D0B01B90190010C0138
:1040C000CA01A0011124FF27591B99F0593F50F450
:1040D000503E68F11A16F040A22F232F342F4427A8
:1040E000585FF3CF469537952795A795F0405395A0
:1040F000C9F77EF41F16BA0B620B730B840BBAF070
:104100009150A1F0FF0FBB1F661F771F881FC2F7DA
:104110000EC0BA0F621F731F841F48F487957795EE
:104120006795B795F7959E3F08F0B0CF9395880FA8
:1041300008F09927EE0F9795879508950E94B22071
:104140000C94CE1D0E94C71D58F00E94C01D40F067
:1041500029F45F3F29F00C94B71D51110C94021EF5
:104160000C94BD1D0E94DF1D68F39923B1F3552304
:1041700091F3951B550BBB27AA276217730784077A
:1041800038F09F5F5F4F220F331F441FAA1FA9F310
:1041900035D00E2E3AF0E0E832D091505040E695FE
:1041A000001CCAF72BD0FE2F29D0660F771F881F5F
:1041B000BB1F261737074807AB07B0E809F0BB0B52
:1041C000802DBF01FF2793585F4F3AF09E3F510566
:1041D00078F00C94B71D0C94021E5F3FE4F3983EF8
:1041E000D4F3869577956795B795F7959F5FC9F74F
:1041F000880F911D9695879597F90895E1E0660FD0
:10420000771F881FBB1F621773078407BA0720F048
:10421000621B730B840BBA0BEE1F88F7E0950895B1
:104220000E94E71D88F09F5798F0B92F9927B75142
:10423000B0F0E1F0660F771F881F991F1AF0BA954A
:10424000C9F714C0B13091F00E94011EB1E0089589
:104250000C94011E672F782F8827B85F39F0B93F7B
:10426000CCF3869577956795B395D9F73EF49095FD
:104270008095709561957F4F8F4F9F4F08950E9455
:10428000261D08F48FEF08950E94261D880B990BB8
:1042900008950E948B21A59F900DB49F900DA49F1F
:1042A000800D911D112408952F923F924F925F929D
:1042B0006F927F928F929F92AF92BF92CF92DF9236
:1042C000EF92FF920F931F93CF93DF93CDB7DEB79B
:1042D000CA1BDB0B0FB6F894DEBF0FBECDBF09942F
:1042E0002A88398848885F846E847D848C849B8486
:1042F000AA84B984C884DF80EE80FD800C811B8194
:10430000AA81B981CE0FD11D0FB6F894DEBF0FBEC2
:10431000CDBFED010895A29FB001B39FC001A39F3F
:10432000700D811D1124911DB29F700D811D1124EE
:10433000911D0895991B79E004C0991F961708F004
:10434000961B881F7A95C9F780950895AA1BBB1BF9
:1043500051E107C0AA1FBB1FA617B70710F0A61B85
:10436000B70B881F991F5A95A9F780959095BC01A6
:10437000CD01089597FB072E16F4009407D077FD22
:1043800009D00E94A62107FC05D03EF490958195A6
:104390009F4F0895709561957F4F0895A1E21A2E61
:1043A000AA1BBB1BFD010DC0AA1FBB1FEE1FFF1FD9
:1043B000A217B307E407F50720F0A21BB30BE40B29
:1043C000F50B661F771F881F991F1A9469F7609570
:1043D0007095809590959B01AC01BD01CF0108952A
:1043E000EE0FFF1F0590F491E02D0994F999FECF8F
:1043F00092BD81BDF89A992780B50895262FF99925
:10440000FECF1FBA92BD81BD20BD0FB6F894FA9AB7
:10441000F99A0FBE0196089510E0C3E6D0E004C0FB
:10442000FE010E94F0212196C436D107C9F7F89405
:02443000FFCFBC
:10443200100E0400010000EC062000000000005AEB
:10444200028902DA01300207020E02210200000094
:10445200008D01DE015E016D0127014A013C010070
:104462000000005404DE01DA01DD0100000000B8A2
:1044720002E808B702620EB00E00000000B902EABC
:1044820008B702590E6C0E0D0A006E616E00696E5D
:1044920066006F7666002F003A30302C007365722A
:1044A20069616C4576656E74282900AC3300414819
:1044B2005478305F480041485478305F5400416C72
:1044C200676F2065737461206D616C3A0053657487
:1044D20074696E672075702E2E2E00536574757088
:1044E2002E2E2E0042206672656500496E69636950
:1044F200616E646F2072656C6F6A00496E696369F0
:10450200616C697A616E646F2052656C6F6A2E2EDF
:104512002E004572726F722064652072656C6F6A3C
:10452200004552524F523A3A2052656C6F6A206EE1
:104532006F20636F6E65637461646F21204F206525
:1045420072726F72206C6579656E646F20656C2083
:1045520072656C6F6A2E2E2E0052656C6F6A206F28
:104562004B2100496E696369616C697A616E646F9F
:104572002073656E736F722E2E2E00496E69636909
:10458200616E646F2073656E736F72004572726F35
:10459200722064652073656E736F72004552524FCC
:1045A200523A3A2073656E736F72206E6F20636F9A
:1045B2006E65637461646F21204F206572726F7241
:1045C200206C6579656E646F20656C2073656E730F
:1045D2006F722E2E2E0053656E736F72204F4B003A
:1045E200686F72613F005265766973616E646F2015
:1045F20072656C6F6A3A004552524F5220464543EB
:10460200484100506F6E65206C6120666563686189
:104612003A004465627567004465627567203D2013
:104622004E4F004465627567203D2053C3AD004C78
:104632006F6700454550524F4D5B305D203D200075
:10464200454550524F4D5B315D203D20002346656C
:104652006368612C54656D70657261747572612C4A
:1046620048756D6564616400426F727261720042E6
:104672006F7272616E646F206C6120454550524FBB
:104682004D0043616461486F726173004D6D6D6DE1
:10469200206E6F20656E74656E646920636164616B
:1046A200206375616E74617320686F72617320712B
:1046B200756572C3A973207175652067756172642F
:1046C20065206C6F73206461746F733A202220003E
:1046D2002200436164614D696E75746F73004D6DA4
:1046E2006D6D206E6F20656E74656E646920636106
:1046F2006461206375616E746F73206D696E757489
:104702006F732071756572C3A97320717565206717
:104712007561726465206C6F73206461746F733AA3
:10472200202220004E6F20656E74656E64692065DC
:10473200736F203A2D5020004163C3A12074656E2F
:10474200676F20717565206D6F7374726172206C72
:104752006F7320636F6D616E646F7320706F736926
:10476200626C65733A004665636861203C41C3B17F
:104772006F3E2C3C4D65733E2C3C44C3AD613E2CD8
:104782003C486F72613E2C3C4D696E75746F3E2CD5
:104792003C536567756E646F3E202D3E20506F6EF0
:1047A20065206C61206665636861004C6F6720203C
:1047B20020202D3E206D75657374726120646174D2
:1047C2006F73206465206C61206D656D6F72696125
:1047D20000426F72726172202020202D3E20426FB3
:1047E200727261206C61206D656D6F726961004348
:1047F200616461486F726173203C486F7261733EFD
:10480200202D3E2047726162612063616461203C19
:10481200486F7261733E20686F7261730054656DF8
:1048220070657261747572612030004572726F72C8
:1048320020466563686100432000252000477261BD
:1048420062616E646F20656E206D656D6F72696165
:0E48520020200047726162616E646F3A0000C0
:00000001FF
