:100000000C941B010C9443010C9443010C94430188
:100010000C9443010C9443010C9443010C94430150
:100020000C9443010C9443010C9443010C94430140
:100030000C9443010C9443010C9443010C94430130
:100040000C947D220C9443010C9443010C944301C5
:100050000C9443010C9443010C9443010C94430110
:100060000C94C5220C9443014E414E494E495459BB
:10007000494E46CDCCCC3D0AD7233C17B7D1387773
:10008000CC2B329595E6241FB14F0A000020410089
:1000900000C84200401C4620BCBE4CCA1B0E5AAED3
:1000A000C59D7400407A10F35A00A0724E180900E2
:1000B00010A5D4E80000E87648170000E40B5402CD
:1000C0000000CA9A3B000000E1F505000080969808
:1000D00000000040420F000000A086010000001058
:1000E0002700000000E8030000000064000000009A
:1000F000000A00000000000100000000002C76D87B
:1001000088DC674F0823DFC1DFAE59E1B1B796E560
:10011000E3E453C63AE651997696E8E6C28426EBC4
:10012000898C9B62ED407C6FFCEFBC9C9F40F2BAD7
:10013000A56FA5F490055A2AF75C936B6CF9676D6F
:10014000C11BFCE0E40D47FEF520E6B500D0ED90C4
:100150002E0300943577050080841E080000204E91
:100160000A000000C80C333333330F986E1283112A
:1001700041EF8D2114893BE65516CFFEE6DB18D101
:10018000844B381BF77C1D901DA4BBE424203284D3
:10019000725E228100C9F124ECA1E53D2700000038
:1001A00000250028002B00000000080002010000CC
:1001B00003040700000000000000001F1C1F1E1F9A
:1001C0001E1F1F1E1F1E436865636B20534420665D
:1001D0006F726D61742E002C30580053644572723A
:1001E0006F723A203058006572726F723A20006464
:1001F00069722E6F70656E206661696C65640000BF
:10020000000000240027002A0001020408102040FA
:1002100080010204081020010204081020040404D4
:10022000040404040402020202020203030303039F
:1002300003003F30E22311241FBECFEFD8E0DEBF22
:10024000CDBF27E0ACE5B3E001C01D92AD31B207F0
:10025000E1F713E0A0E0B1E0E8EAF4E702C00590BE
:100260000D92AC35B107D9F711E0CAE1D1E004C075
:100270002197FE010E942B3AC931D107C9F70E948C
:1002800009240C943D310C94000080E090E0089526
:10029000FC01808183FF17C0808D918DA28DB38D6D
:1002A0004089518962897389841B950BA60BB70B12
:1002B000811520E89207A105B10520F08FEF9FE797
:1002C000A0E0B0E0089580E090E0DC010895FC013A
:1002D0001382128288EE93E0A0E0B0E084839583DD
:1002E000A683B78314861586168681E691E09183EE
:1002F000808308950C960C944801CF93DF9300D02F
:1003000000D0CDB7DEB78FB7F89420912E0430918E
:100310002F04409130045091310429833A834B8358
:100320005C838FBF69817A818B819C810F900F9054
:100330000F900F90DF91CF910895CF93DF9300D06E
:1003400000D0CDB7DEB73FB7F894809129049091E3
:100350002A04A0912B04B0912C0426B5A89B05C0BB
:100360002F3F19F00196A11DB11D3FBFBA2FA92F34
:10037000982F8827820F911DA11DB11D9C01AD01F1
:1003800062E0220F331F441F551F6A95D1F7CA013F
:10039000B9010F900F900F900F90DF91CF910895BA
:1003A0008F929F92AF92BF92CF92DF92EF92FF9285
:1003B000CF93DF9300D000D0CDB7DEB74B015C0107
:1003C0000E949D016B017C010E949D0169837A83DB
:1003D0008B839C83DC01CB018C199D09AE09BF097D
:1003E000883E9340A105B10578F321E0821A910877
:1003F000A108B10888EEC80E83E0D81EE11CF11CEC
:1004000081149104A104B104F9F60F900F900F909C
:100410000F90DF91CF91FF90EF90DF90CF90BF9042
:10042000AF909F908F9008950895CF92DF92EF92B2
:10043000FF920F931F93CF93DF937C016A0100E03B
:1004400010E00C151D0551F4C801DF91CF911F91EB
:100450000F91FF90EF90DF90CF900895EB01D701BF
:10046000ED91FC910190F081E02D6991C701099512
:10047000892B51F30F5F1F4FBE01E3CF8091F20331
:100480009091F103891B990B08959091F10380914C
:10049000F2032FEF3FEF981748F4E92FF0E0EF5207
:1004A000FC4F208130E09F5F9093F103C9010895D4
:1004B000E091F1038091F203E81730F4F0E0EF529D
:1004C000FC4F808190E008958FEF9FEF089508958D
:1004D000089508952091CD03260F3327331F21322D
:1004E0003105ECF42091D003FC0180E090E0243051
:1004F00069F082E00895A091CD032191AC014355AC
:100500005C4FA40FB52FB11D2C930196861798F35D
:100510008091CD03680F6093CD0380E0089581E062
:100520000895CF93DF930F92CDB7DEB7FC016983B7
:10053000809115048823F1F080911404803250F0EA
:1005400081E090E09383828380E090E00F90DF91E0
:10055000CF91089580911304E82FF0E0ED50FC4F07
:10056000998190838F5F809313048093140481E0BA
:1005700090E0ECCF61E0CE0101960E946A02F7CFD5
:10058000CF92DF92EF92FF920F931F93CF93DF935F
:100590007C01CB018A01209115042223D9F0EB01C3
:1005A0006B01C40ED51ECC15DD0551F4C801DF91D9
:1005B000CF911F910F91FF90EF90DF90CF90089512
:1005C0006991D701ED91FC910190F081E02DC70177
:1005D0000995E9CF642F0E946A02E8CF0895089533
:1005E0000895CF93DF9300D000D000D0CDB7DEB711
:1005F0008D839E83ED81FE8161812081422F50E0B9
:10060000828190E0EBEBF1E031E0361708F460C056
:10061000633020F02370211101C001966DE671E076
:10062000469F9001479F300D569F300D1124215059
:1006300031094D5F5F4F5695479556954795240F65
:10064000351F280F391FA8E1B0E00E94C639698321
:100650007A838B839C83ED81FE81838129813A811A
:100660004B815C81280F311D411D511DACE3B0E071
:100670000E94843969837A838B839C838481298156
:100680003A814B815C81280F311D411D511D0E9413
:10069000843969837A838B839C83858190E0A0E091
:1006A000B0E080589C4BA249B74C29813A814B81DC
:1006B0005C81280F391F4A1F5B1FCA01B9010F90C7
:1006C0000F900F900F900F900F90DF91CF910895A2
:1006D0007491870F911D3F5F319697CF8091C10034
:1006E00085FDFCCF8091C00085FFF8CF08958091F3
:1006F000C10085FDFCCF8091C00085FFF8CF6093DD
:10070000C60081E090E008958EBD00000DB407FEA4
:10071000FDCF8EB5089590E0FC01E955FE4F249180
:10072000FC01E75FFD4F3491FC01E35EFD4FE49176
:10073000EE2309F1222379F0243021F140F4223014
:1007400029F12330C9F084B58F7784BD04C02730E8
:1007500001F1283021F1F0E0EE0FFF1FE356FE4FCC
:10076000A591B4919FB7F8948C9161111CC03095FC
:1007700038233C939FBF0895809180008F778093AA
:100780008000E9CF809180008F7DF9CF84B58F7D87
:10079000DCCF8091B0008F778093B000DCCF809168
:1007A000B0008F7DF9CF832B8C93E4CF1092D003D0
:1007B00081E08093CF031092CE0361E082E10E943A
:1007C0008B0361E083E10E948B03E9EBF0E0808121
:1007D0008E7F808380818D7F808388E48093B800C2
:1007E00085E48093BC000895CF93DF9391E09093CC
:1007F000A7038823B9F0C091B800D091BA008091C6
:10080000BC008A7B8093BC0060E082E10E948B0385
:1008100060E083E10E948B030E94D603D093BA006C
:10082000C093B800DF91CF910895CF93DF93EC018F
:1008300060E08E810E948B0361E08E810E948B03B9
:1008400060E08E810E948B038BE891E00197F1F7C5
:10085000DF91CF910895CF92DF92EF92FF920F93A5
:100860001F93CF93DF93EC016C0187E0C80ED11C7E
:1008700000E010E0E62EF12CB701002E02C07595C5
:1008800067950A94E2F76170F60181916F010E9409
:100890008B030F5F1F4F0430110571F7CE01DF91FD
:1008A000CF911F910F91FF90EF90DF90CF900C941C
:1008B0001504CF92DF92EF92FF920F931F93CF9385
:1008C000DF93EC01062F642F8C810E948B038D81B6
:1008D0008F3F19F060E00E948B038F8584FF26C054
:1008E0006E0187E0C80ED11CE12CF12C10E0B8019C
:1008F0000E2C02C0759567950A94E2F76170F601B7
:1009000081916F010E948B03FFEFEF1AFF0A88E0CD
:10091000E816F10461F7CE01DF91CF911F910F919D
:10092000FF90EF90DF90CF900C941504602F6295AC
:100930006F70CE010E942B04602FCE01DF91CF910A
:100940001F910F91FF90EF90DF90CF900C942B04AC
:1009500041E00E94590481E090E00895CF93DF9335
:10096000EC018E81882341F061E08C810E948B0331
:100970008FEF0E9484031E82DF91CF9108950F9321
:100980001F93CF93DF938C01862FEA010E9484038B
:10099000FE0181918EBDDE5F8081319600000000F6
:1009A0000DB407FEFDCF8EBDCE17DF07A9F70DB43E
:1009B00007FEFDCF8FEF0E9484038FEF0E94840318
:1009C0008FEF0E948403F80180878F71853059F082
:1009D00080E28583C8010E94AE0480E0DF91CF9160
:1009E0001F910F91089581E0F9CFCF93DF93EC0130
:1009F0009A818B819CBD8DBD60E08C810E948B03B0
:100A00008FEF0E94840381E08E83DF91CF91089560
:100A1000AC019B01CA0101972A30310520F4205D09
:100A2000FC012083089553E3259F2227050E211DF5
:100A3000402D359F3327200D311D1124420F231FD8
:100A4000311D430F211D311D3695279547955AE0DD
:100A5000459F412D1124405DFC014083AC01DACF5C
:100A6000CF93DF93EB01442319F0FC014293CF01B4
:100A7000BE010E9408052A9720F4FC0180E38293BE
:100A8000CF01DF91CF91089590E0FC01E75FFD4F2A
:100A90002491835E9D4FFC0184918823A1F090E016
:100AA000880F991FFC01E150FE4FA591B491FC0104
:100AB000E356FE4F859194918FB7F8949C91E22F65
:100AC000E92BEC938FBF0895682F40E08FEF96E0FD
:100AD0000C94590481E00E9464058BE39FE1019727
:100AE000F1F708950F931F93CF93DF93823029F48A
:100AF00090910E07986090930E07809312071092C2
:100B0000130780E48093140780E18093150780E544
:100B100080931607809103070E9444058091040783
:100B20008F3F11F00E944405809105070E94440503
:100B300006E017E0C0E0D0E080910E0784FF5CC0C3
:100B400088E090E0C817D9070CF44FC08BE39DE014
:100B50000197F1F760E0809103070E948B0360E04A
:100B6000809105070E948B03809104078F3F19F045
:100B700060E00E948B0380910E0784FD3FC063E01C
:100B80008FEF96E00E942B04CBE4D6E4CE010197D0
:100B9000F1F763E08FEF96E00E942B042197F1F7C5
:100BA00063E08FEF96E00E942B0483E592E00197CB
:100BB000F1F762E08FEF96E00E942B0480910E0720
:100BC00080620E94640584E080930F078CE00E949D
:100BD00064050E946A0582E08093100786E0DF9139
:100BE000CF911F910F910C946405F80181918F01B1
:100BF0000E9444052196A0CF84E0A3CF80620E948A
:100C000064058BE496E40197F1F780910E0780620A
:100C10000E94640583E592E00197F1F780910E0749
:100C200080620E946405CACF90911207691710F084
:100C30006FEF690FE62FF0E0E150F94F9489890FCB
:100C400080680C9464058F929F92AF92BF92CF926E
:100C5000DF92EF92FF92CF93DF9300D000D000D0CD
:100C6000CDB7DEB7E82E809114048E83813208F070
:100C7000F2C0F0905C030E949D014B015C018091E9
:100C8000D0038D83811174C082E08093D003E09201
:100C9000CF038FEF809383031092A5038E818093FF
:100CA000A403482F50E063EF73E084E893E00E94D0
:100CB0009C381092A6038091A603FF0CF82AF092AC
:100CC000A6038091CE03813009F099C01092CE0323
:100CD0000E949D016B017C018091A6038093BB0063
:100CE0008091A9039091AA03A091AB03B091AC03AA
:100CF000892B8A2B8B2BE1F00E949D0169837A83DB
:100D00008B839C834091A9035091AA036091AB030C
:100D10007091AC0389819A81AB81BC818C199D094A
:100D2000AE09BF09481759076A077B0708F449C08D
:100D30008091BC0083FDD0CF85EC8093BC000E94E5
:100D40009D016B017C018091D003823009F459C070
:100D5000809183038F3FD9F180918303803209F41E
:100D60007CC080918303803309F079C083E02EC07A
:100D70008091A9039091AA03A091AB03B091AC0319
:100D8000892B8A2B8B2B09F47ACF0E949D016983D2
:100D90007A838B839C834091A9035091AA0360912D
:100DA000AB037091AC0389819A81AB81BC818819B6
:100DB0009909AA09BB09481759076A077B0708F070
:100DC0005ECF8091A8030E94F40385E08D8310928A
:100DD000130410921404109215048D810F900F903B
:100DE0000F900F900F900F90DF91CF91FF90EF90A9
:100DF000DF90CF90BF90AF909F908F90089585EE39
:100E00009CCF8091A9039091AA03A091AB03B091CC
:100E1000AC03892B8A2B8B2B09F495CF0E949D0163
:100E200069837A838B839C834091A9035091AA03A1
:100E30006091AB037091AC0389819A81AB81BC81D5
:100E40008C199D09AE09BF09481759076A077B0726
:100E500008F079CFB6CF81E0B9CF82E0B7CF84E098
:100E6000B5CFCF93DF93EC011092F1031092F20310
:100E700010921304109214040E94D60389E692E0A3
:100E800090935E0380935D0388E692E09093610304
:100E90008093600381E08B83988180931504909305
:100EA0005C030E942306982F81E0911180E0DF917E
:100EB000CF9108952F923F924F925F926F927F92BF
:100EC0008F929F92AF92BF92CF92DF92EF92FF925A
:100ED0000F931F93CF93DF9300D000D000D0CDB7F6
:100EE000DEB75C014B016A01E12CF12C3324339411
:100EF00085EE282ED50114968D919C9186010E19B0
:100F00001F098017910708F48C01F501F081FE8319
:100F10000E949D012B013C018091D00381117CC076
:100F20000D83013210F090E29D833092D00321E0D6
:100F3000C601801B910BE816F90608F420E0209307
:100F4000CF03AFEFA09383031092A5038D8181504F
:100F50008093A4033092A6038091A603BE81BB0FA9
:100F6000B82BB093A6038091CE03813009F0B8C0AE
:100F70001092CE030E949D012B013C018091A6039B
:100F80008093BB008091A9039091AA03A091AB0329
:100F9000B091AC03892B8A2B8B2BE1F00E949D0131
:100FA00069837A838B839C834091A9035091AA0320
:100FB0006091AB037091AC0389819A81AB81BC8154
:100FC00084199509A609B709481759076A077B07C5
:100FD00008F44BC08091BC0083FDD0CF85EC80939A
:100FE000BC000E949D012B013C018091D003813007
:100FF00009F479C08091A503ED818E1718F4F09162
:10100000A503FD838D81482F50E064E873E081EDF6
:1010100093E00E949C382EC08091A9039091AA036E
:10102000A091AB03B091AC03892B8A2B8B2B09F4D5
:1010300073CF0E949D0169837A838B839C83409147
:10104000A9035091AA036091AB037091AC0389810D
:101050009A81AB81BC8184199509A609B709481703
:1010600059076A077B0708F057CF8091A8030E94B1
:10107000F4031D821092F1039D819093F203A92F36
:10108000B0E00A171B0709F06CC0F401EE0DFF1D5C
:10109000FA83E983612C712C0615170509F04DC000
:1010A000E00EF11EEC14FD0408F424CF81E00F9053
:1010B0000F900F900F900F900F90DF91CF911F9195
:1010C0000F91FF90EF90DF90CF90BF90AF909F90E7
:1010D0008F907F906F905F904F903F902F900895EA
:1010E0002092BC007ECF8091A9039091AA03A09189
:1010F000AB03B091AC03892B8A2B8B2B09F475CFF2
:101100000E949D0169837A838B839C834091A9030C
:101110005091AA036091AB037091AC0389819A81CD
:10112000AB81BC8184199509A609B70948175907ED
:101130006A077B0708F059CF98CFD50111968D919A
:101140009C91DC01ED91FC910284F385E02D0995E1
:10115000E981FA818193FA83E983FFEF6F1A7F0AAD
:101160009BCF80E0A4CF9C01653048F470E0660F0F
:10117000771F260F371FF9018181928108956B3007
:1011800048F470E0660F771F260F371FF90184813E
:10119000958108956D3049F070E0660F771F260F36
:1011A000371FF90186819781089580E090E00895C6
:1011B000FC019C01255F3F4F80E080FB879587F90C
:1011C0009191890F2E173F07C1F70895CF93DF93B1
:1011D000EC010E947D01462F572FC40FD51F8FEFC2
:1011E0000E9484038F3F21F481E0DF91CF91089525
:1011F0000E947D01462F572FCE01841B950B97FF30
:10120000EECF80E0F2CF1F93CF93DF93EC0188E520
:1012100092E00E94E608182F81110AC08EE18D83AA
:10122000CE010E94AE04812FDF91CF911F910895CE
:101230008DEF0E948403CE010E94AE041F82F3CF83
:10124000FC012781223011F40C940309213011F4A0
:101250000C94940981E00895AF92BF92CF92DF92EF
:10126000EF92FF920F931F93CF93DF9300D000D0A4
:10127000CDB7DEB78C01F62E29833A834B835C838E
:101280000E942009882309F44DC0F801868181114C
:1012900003C0C8010E94F504FCE0FF123AC08F2D84
:1012A00080640E9484036E0185E0C80ED11CFE019B
:1012B00031965F01F60182916F010E948403CA1486
:1012C000DB04C1F785E9F11087E80E9484038FEF02
:1012D0000E9484038AE0E82EF12C8FEF0E948403A1
:1012E000F801808787FF06C0F1E0EF1AF108E114EA
:1012F000F10499F70F900F900F900F90DF91CF911D
:101300001F910F91FF90EF90DF90CF90BF90AF9023
:1013100008958CE291E00E94E6088111C0CFFF2081
:1013200009F4BDCF8FEFE6CFCF93DF93EC011F829F
:1013300020E030E0A9016CE00E942C09882349F0EC
:1013400089E08D83CE010E94AE0480E0DF91CF91D1
:101350000895CE010E94AE0481E0F8CFCF92DF92D3
:10136000EF92FF920F931F93CF93DF93EC016A01EB
:101370007B0189018F81813049F48A859B85AC8509
:10138000BD858C159D05AE05BF0539F18985A70181
:101390009601833039F089E0220F331F441F551F17
:1013A0008A95D1F762E1CE010E942C09882379F059
:1013B0008CE08D83CE010E94AE0480E0DF91CF915E
:1013C0001F910F91FF90EF90DF90CF90089581E0F3
:1013D0008F83CA86DB86EC86FD860E947D01462FC0
:1013E000572F7A0184EDE81A8EEFF80A8FEF0E94EA
:1013F000840388878F3F09F43DC08E3F09F048C0C1
:101400008FEF8EBDD801A150BE4F902F812F3FEF9F
:10141000000000000DB407FEFDCF2EB53EBDE92F44
:10142000F82F2193AE17BF0781F50DB407FEFDCF4E
:101430008EB58C9318868FEF0E9484038FEF0E94E5
:1014400084038A859B85AC85BD850196A11DB11D50
:101450008A879B87AC87BD878E858111AFCFCE01F0
:10146000DF91CF911F910F91FF90EF90DF90CF9080
:101470000C9494090E947D01462F572FC701841BAD
:10148000950B97FFB3CF8DE194CF9E2F8F2FC0CFB9
:1014900088E18FCFCF92DF92EF92FF920F931F934D
:1014A000CF93DF93EC016A017B0189018E8588234C
:1014B00009F45EC08F81823049F48A859B85AC85B2
:1014C000BD85C816D906EA06FB06D9F08985A701AD
:1014D0009601833039F099E0220F331F441F551FC6
:1014E0009A95D1F769E1CE010E942C09882319F061
:1014F0008EE08D8315C082E08F83CA86DB86EC8602
:10150000FD8688E592E00E94E608811102C084E22F
:10151000F0CFA8016CEFCE010E94BF04811105C07D
:10152000CE010E94AE0480E00FC08A859B85AC8509
:10153000BD850196A11DB11D8A879B87AC87BD879C
:101540008E85882351F081E0DF91CF911F910F911B
:10155000FF90EF90DF90CF900895CE01DF91CF9173
:101560001F910F91FF90EF90DF90CF900C940309A3
:101570008985833039F089E0CC0CDD1CEE1CFF1C22
:101580008A95D1F7A701960168E1CE010E942C0946
:10159000882311F08DE0ADCFA8016EEFCE010E943F
:1015A000BF04882309F4BCCFCE010E94AE04CBCF88
:1015B0000F931F93CF93DF93EC01888180FF1AC0B4
:1015C0008E01055F1F4F4F81588569857A85980187
:1015D00089819A810E944A0A811106C080E0DF91C8
:1015E000CF911F910F910895888181FD05C0888159
:1015F0008E7F888381E0F3CF4F81588569857A8516
:101600008B819C81AD81BE81480F591F6A1F7B1F52
:10161000980189819A810E944A0A8111E8CFDECF20
:10162000CF93DF93EC0180960E94D80A882331F093
:1016300088819981DF91CF910C94200980E0DF911E
:10164000CF910895CF92DF92EF92FF921F93CF93A5
:10165000DF93EC016A017B01122F89819A81892B2A
:1016600051F480E090E0DF91CF911F91FF90EF90D7
:10167000DF90CF9008958F819885A985BA858C15C4
:101680009D05AE05BF0561F0CE010E94D80A8823F2
:1016900041F312FF0CC01882CF82D886E986FA8601
:1016A00013708881812B8883CE010B96DCCF9E013D
:1016B000255F3F4FB701A60189819A810E94AE093B
:1016C0008111E9CFCECFCF93DF93EC01262F4C8948
:1016D0005D896E897F898E819F8180960E94220B11
:1016E000009759F02C813D812F70332745E0220F60
:1016F000331F4A95E1F7820F931FDF91CF91089531
:10170000CF93DF93EC018881811104C081E0DF91E8
:10171000CF9108958A8187FF25C061E0CE010E94A4
:10172000630BFC01892B29F489818160898380E026
:10173000EECF8081853EC1F3888183FF08C0888D0C
:10174000998DAA8DBB8D848F958FA68FB78F8C8D29
:101750009D8DAE8DBF8D938F828FB58BA48B8A812B
:101760008F778A838E819F810E94100B8823E1F2FC
:10177000CDCF0C960C94800BCF93DF93EC010E949D
:10178000800B18821A82DF91CF910895CF92DF9259
:10179000EF92FF920F931F93CF93DF93EC016A01B7
:1017A0007B01890182E0C816D104E104F10450F400
:1017B0008FEFDF91CF911F910F91FF90EF90DF900E
:1017C000CF900895888D998DAA8DBB8D8C159D0520
:1017D000AE05BF0568F38D818032B1F58C899D8996
:1017E000AE89BF89B701A60127E076956795579521
:1017F00047952A95D1F7480F591F6A1F7B1F22E092
:10180000CE0180960E94220B9C01892B89F2CC0C80
:10181000DD1CCC0CDD1CE1E0DE222C0D3D1DF901B0
:1018200080819181A281B381488D598D6A8D7B8D94
:10183000481759076A077B0738F1F80180839183BD
:10184000A283B38381E0B5CF803109F0B1CF4C8959
:101850005D896E897F894D0D511D611D711D22E0CD
:10186000CE0180960E94220B9C01892B09F4A0CF07
:10187000CC0CDD1CF1E0DF222C0D3D1DF901808137
:101880009181A0E0B0E0D0CF80E093CF4F925F9203
:101890006F927F928F929F92AF92BF92CF92DF9280
:1018A000EF92FF920F931F93CF93DF93EC016A01A6
:1018B0007B014C845D846E847F8428812223B1F176
:1018C000488959896A897B894C155D056E057F05B4
:1018D00081F0C114D104E104F104E9F41C861D86F1
:1018E0001E861F86C88AD98AEA8AFB8A8A818F7DEA
:1018F0008A8381E0DF91CF911F910F91FF90EF904C
:10190000DF90CF90BF90AF909F908F907F906F901F
:101910005F904F90089523FF0FC0888D998DAA8DF9
:10192000BB8D8C159D05AE05BF05C8F44C865D8644
:101930006E867F8680E0DECF25FF11C0EE81FF81BD
:101940008681978125E0880F991F2A95E1F7A0E00D
:10195000B0E08C159D05AE05BF0540F3C3CFEE8109
:10196000FF813481375F4601570181E0881A910871
:10197000A108B108032E04C0B694A7949794879445
:101980000A94D2F78A8186FF0DC08C8D9D8DAE8D15
:10199000BF8D880D991DAA1DBB1D8C879D87AE87A5
:1019A000BF87A0CFDB01CA010197A109B10904C01B
:1019B000B695A795979587953A95D2F78816990683
:1019C000AA06BB0620F0452B462B472B99F426FF91
:1019D0000CC0848D958DA68DB78D8C879D87AE8725
:1019E000BF878E01045F1F4F1BC08C8D9D8DAE8DF8
:1019F000BF8DF3CF881A990AAA0ABB0AF2CF4C8589
:101A00005D856E857F8598018E819F810E94C60BC2
:101A100091E0891A9108A108B10818160CF086CF38
:101A200081149104A104B10451F75CCFCF92DF92ED
:101A3000EF92FF920F931F93CF93DF93FC016A0104
:101A40007B01D22FC32F82E0C816D104E104F10438
:101A500050F480E0DF91CF911F910F91FF90EF90B4
:101A6000DF90CF900895808D918DA28DB38D8C15D0
:101A70009D05AE05BF0568F38581803239F58489FF
:101A80009589A689B789B701A60127E0769567955C
:101A9000579547952A95D1F7480F591F6A1F7B1F05
:101AA00023E0CF0180960E94220BAC01892B89F2A2
:101AB000CC0CDD1CCC0CDD1CF601F170E40FF51F25
:101AC00000831183D283C38381E0C4CF803109F6C0
:101AD00044895589668977894D0D511D611D711D98
:101AE00023E0CF0180960E94220B9C01892B09F4F0
:101AF000B0CFCC0CDD1CE1E0DE222C0D3D1DF90148
:101B000011830083E1CF2F923F924F925F926F92A9
:101B10007F928F929F92AF92BF92CF92DF92EF927D
:101B2000FF920F931F93CF93DF9300D000D000D08C
:101B30000F92CDB7DEB78D839E83ED81FE818484C5
:101B40009584A684B78426803780F101408451842F
:101B50006284738411E0481459046A047B0418F405
:101B60002401350110E073016201FFEFCF1ADF0A93
:101B7000EF0AFF0AF101808D918DA28DB38D8C1536
:101B80009D05AE05BF05A0F4111161C040845184CC
:101B90006284738473016201FFEFCF1ADF0AEF0AD8
:101BA000FF0A8C159D05AE05BF0508F450C011E075
:101BB0008C149D04AE04BF0409F449C09E012F5F3C
:101BC0003F4FB701A601C1010E94C60B87FD3FC070
:101BD0008823D1F189819A81AB81BC81892B8A2BA1
:101BE0008B2B91F5112329F0F101C086D186E28675
:101BF000F3860FEF1FEF2FEF3FE0B701A601C10102
:101C00000E94160D8F83882311F181149104A10481
:101C1000B104C1F197018601B501A401C1010E947F
:101C2000160D8823A1F0ED81FE81C486D586E68657
:101C3000F78684149504A604B70471F5ED81FE813E
:101C400082818068828304C0260137018CCF1F8285
:101C50008F8127960FB6F894DEBF0FBECDBFDF9100
:101C6000CF911F910F91FF90EF90DF90CF90BF9099
:101C7000AF909F908F907F906F905F904F903F902C
:101C80002F900895ED81FE81C486D586E686F7867D
:101C9000828180648283D2CFED81FE8182818F7BBD
:101CA000F9CF9F92AF92BF92CF92DF92EF92FF92C5
:101CB0000F931F93CF93DF9300D000D0CDB7DEB743
:101CC0005C016A017B019E012F5F3F4FB701A601B6
:101CD000C5010E94C60B982E87FD34C000E010E0BD
:101CE0009801B701A601C5010E94160D882351F184
:101CF000F5014085518562857385C416D506E606D3
:101D0000F70650F4F1E0CF1AD108E108F108F50127
:101D1000C086D186E286F386C980DA80EB80FC80BB
:101D20009110D1CF0F900F900F900F90DF91CF9126
:101D30001F910F91FF90EF90DF90CF90BF90AF90E9
:101D40009F90089580E0EECFFC0182819381A7E708
:101D5000B4E013969C938E931297448155816681CB
:101D6000778114964D935D936D937C93179740857F
:101D700051856285738518964D935D936D937C9321
:101D80001B9780E23C96A3E8B4E001900D928A95FF
:101D9000E1F70895CF93DF93EC01FE016491662390
:101DA00039F083E794E00E9477032196892BA9F705
:101DB000DF91CF910895CF93DF930F92CDB7DEB728
:101DC00041E050E0BE016F5F7F4F0E945A078823B9
:101DD00029F089810F90DF91CF9108958FEFFACF8D
:101DE000DC01ED91FC910190F081E02D0994DC0182
:101DF000FB014481558160817181ED91FC910280EC
:101E0000F381E02D09941F93CF93DF93FC01EA0146
:101E1000122F848195818417950710F480E01DC0EE
:101E200081819281208131E03093150420935C03FD
:101E30001092130410921404DC01ED91FC910280C5
:101E4000F381E02D0995C817D90741F7812F0E942A
:101E50002306982F81E09111E1CFDF91CF911F915F
:101E60000895EF92FF920F931F93CF93DF9300D0CB
:101E700000D000D00F92CDB7DEB78C011982E09070
:101E80002404F090250420E041E050E0BE016F5FA3
:101E90007F4FC7010E94030F882341F047E050E0C5
:101EA000BE016F5F7F4FC7010E945A0799819F77DC
:101EB0002A813B814D815E816F81862F82958F7053
:101EC000782F770F770F871B880F860FF801808395
:101ED000852F82958F70682F660F660F861B880F7F
:101EE000850F8183842F82958F70582F550F550F42
:101EF000851B880F840F8283832F82958F70482FD4
:101F0000440F440F841B880F830F8383822F829595
:101F10008F70382F330F330F831B880F820F84830A
:101F2000892F82958F70282F220F220F821B880FF6
:101F3000890F8583C80127960FB6F894DEBF0FBEC0
:101F4000CDBFDF91CF911F910F91FF90EF9008953A
:101F50002F923F924F925F926F927F928F929F92B9
:101F6000AF92BF92CF92DF92EF92FF920F931F93A7
:101F7000CF93DF9300D00F92CDB7DEB78A839B83D8
:101F80004B015A01AA81BB8112968C9181FF1AC024
:101F900083FD23C0A50160E070E0EA81FB818089B8
:101FA0009189A289B38980959095A095B095750186
:101FB0001F01FCE02F0E311C84179507A607B707F9
:101FC00008F01FC1AA81BB8111968C911197816085
:101FD00011968C9380E090E02CC1AA81BB81589629
:101FE0004D915D916D917C915B97CD010E94460C66
:101FF0008111D0CFE7CFEA81FB8186819781DC0117
:1020000013961C91B301A20129E076956795579527
:1020100047952A95D1F7142319836201B1E0DB2299
:10202000448555856685778511111EC0C114D1047C
:10203000D9F4411551056105710509F46DC022817E
:1020400026FF5CC0008D118D228D338D4016510608
:102050006206730608F052C04F5F5F4F6F4F7F4FAD
:102060004487558766877787AA81BB811696ED914D
:10207000FC9117971C964D915D916D917C911F97E6
:102080004250510961097109848104C0440F551FF0
:10209000661F771F8A95D2F780899189A289B389B3
:1020A000840F951FA61FB71FAC01BD012981420FE8
:1020B000511D611D711DC114D10409F04FC0E114FF
:1020C00082E0F80608F454C087A190A5A1A5B2A5A6
:1020D000481759076A077B0731F410A2AFEFA7A38F
:1020E000A0A7A1A7A2A7940181A192A10E944A0A38
:1020F000882309F467CF00E012E071C091010E94CB
:10210000C60B87FD5FCF8111AFCF8A819B810E9473
:10211000830D8111A9CF56CFEA81FB81848D958DE6
:10212000A68DB78D0097A105B10589F4CF010E9456
:10213000830D882309F446CFEA81FB818485958548
:10214000A685B785848F958FA68FB78F8DCFEA81AF
:10215000FB8184879587A687B78786CF00E012E04A
:102160000C191D09E016F10608F4870121E01AC0D8
:10217000AA81BB8150960D911D912D913C91539751
:1021800058964D905D906D907C905B970415150569
:102190002605370508F063C012968C91870185FFEC
:1021A000E5CF25E0CF0180960E94220B009709F42D
:1021B00009CFA801B4018C0D9D1D0E949C38EA81B5
:1021C000FB8186819781C00ED11EC114F2E0DF062B
:1021D00031F480960E94D80A882309F4F3CEEA816C
:1021E000FB8180899189A289B389800F911FA11DEC
:1021F000B11D808B918BA28BB38B800E911EE01A48
:10220000F10AAA81BB8150964D905D906D907C90B3
:102210005397E114F10409F0EECE58968D919D91FB
:102220000D90BC91A02D84159505A605B705C8F0A5
:10223000C5010F900F900F90DF91CF911F910F91DB
:10224000FF90EF90DF90CF90BF90AF909F908F90D6
:102250007F906F905F904F903F902F9008958701EF
:10226000A0CFEA81FB81408E518E628E738E828177
:1022700080688283DDCFCF93DF930F92CDB7DEB737
:10228000698341E050E0BE016F5F7F4F0C960E9472
:10229000A80F0F90DF91CF9108950C960C94A80F82
:1022A0008F929F92AF92BF92CF92DF92EF92FF9266
:1022B0000F931F93CF93DF93EC018B012A8120FFB3
:1022C000CDC0C8803C2D387088889988AA88BB8882
:1022D000332309F458C0888D998DAA8DBB8D881938
:1022E0009909AA09BB0982309105A105B10518F425
:1022F000009709F4B9C0EE81FF81740141E0F42236
:10230000B501A40189E076956795579547958A951B
:10231000D1F7C5FE49C0848D958DA68DB78D480F28
:10232000591F6A1F7B1F8E819F8120E080960E942B
:10233000220B9C01892B09F491C02E0D3F1DF90140
:102340008081F801808388899989AA89BB8901964F
:10235000A11DB11D888B998BAA8BBB8B21E030E02E
:1023600080E090E0A901481B590BCA01DF91CF9191
:102370001F910F91FF90EF90DF90CF90BF90AF90A3
:102380009F908F900895C5FEB6CFEE81FF81468164
:10239000578195E0440F551F9A95E1F7CA018819B6
:1023A000990948155905A5CFD380D422E114F10429
:1023B00081F4D1100EC089288A288B2881F5C6FEA9
:1023C00029C0848D958DA68DB78D8C879D87AE870E
:1023D000BF87EE81FF814C855D856E857F8542508C
:1023E000510961097109848104C0440F551F661F9A
:1023F000771F8A95D2F780899189A289B389840F42
:10240000951FA61FB71FAC01BD014D0D511D611DCC
:10241000711D89CF8C8D9D8DAE8DBF8DD6CF4C8596
:102420005D856E857F85332359F026FF09C04F5F98
:102430005F4F6F4F7F4F4C875D876E877F87C9CF18
:102440009E01245F3F4FCF010E94C60B87FD06C04F
:102450008111BFCF88818077811109C08981826015
:1024600089838FEF9FEF82CF20E030E07BCF21E0A8
:1024700030E081E090E076CFCF93DF930F92CDB73D
:10248000DEB7BE016F5F7F4F0E945011019731F49C
:10249000898190E00F90DF91CF9108958FEF9FEFAA
:1024A000F9CF0C960C943C128F929F92AF92BF92F0
:1024B000CF92DF92EF92FF92CF93DF93EC018C8C5F
:1024C0009D8CAE8CBF8CC88CD98CEA8CFB8C0C9606
:1024D0000E943C128C8E9D8EAE8EBF8EC88ED98E81
:1024E000EA8EFB8EDF91CF91FF90EF90DF90CF903F
:1024F000BF90AF909F908F900895FF920F931F937E
:10250000CF93DF930F92CDB7DEB78C01FC018089AA
:102510009189A289B3899C01AD0175E056954795D3
:10252000379527957A95D1F7F22FFF70FF2EFF236D
:1025300011F0611128C0BE016F5F7F4FC8010E947A
:102540005011813049F080E090E00F90DF91CF9101
:102550001F910F91FF900895F80180899189A289B8
:10256000B3894F96A11DB11D808B918BA28BB38B2C
:10257000F801868197818B96F0E2FF9E90011124ED
:10258000820F931FE2CF8096A11DB11DF801ECCF01
:10259000CF93DF93D82FC92FAB0160E070E085E0C7
:1025A000440F551F661F771F8A95D1F78D2F0E9404
:1025B000460C882339F060E08D2F9C2FDF91CF915E
:1025C0000C947D1280E090E0DF91CF9108950C94FF
:1025D0003E37FC0180819181009711F00C943E37C9
:1025E0000895CF93DF93EC0188819981009711F0D2
:1025F0000E943E37198218821D821C821B821A8219
:10260000DF91CF9108950C943E37CF93DF93EC0187
:10261000DB01AB2B81F0FB0101900020E9F7319742
:10262000AF01461B570BE881F9810280F381E02D51
:10263000DF91CF910994DF91CF9108956F927F92AE
:102640008F929F92AF92BF92CF92DF92EF92FF92C2
:102650000F931F93CF93DF93CDB7DEB7A1970FB63C
:10266000F894DEBF0FBECDBF3C01142F052F962E70
:10267000872E19A2223008F42AE05E0181E2A80E1A
:10268000B11CC22ED12CE12CF12C612F702F892D81
:10269000982DA70196010E94093A812F902FA92D0C
:1026A000B82D122F032F942E852E6A3014F5605DFD
:1026B000F50162935F018C159D05AE05BF0528F7F6
:1026C000BF01C3010E940513A1960FB6F894DEBFA7
:1026D0000FBECDBFDF91CF911F910F91FF90EF9073
:1026E000DF90CF90BF90AF909F908F907F906F9032
:1026F0000895695CDDCFCF92DF92EF92FF920F9346
:102700001F93CF93DF93CDB7DEB729970FB6F89419
:10271000DEBF0FBECDBF462F572FBC0149835A8362
:102720006B837C839A01AB01CA01B9010E947F3996
:102730006FE671E0811121C089819A81AB81BC81F2
:10274000BF778D839E83AF83B8872FEF3FEF4FE72F
:102750005FE7BC01CD010E947F39811120C02FEFBE
:102760003FEF4FE75FE76D817E818F8198850E9403
:1027700081351816A4F463E771E08FEF96E029968F
:102780000FB6F894DEBF0FBECDBFDF91CF911F9182
:102790000F91FF90EF90DF90CF900C9405132FEFE7
:1027A0003FEF4FE75FE469817A818B819C810E94D2
:1027B0007A3918161CF467E771E0DFCF2FEF3FEF8F
:1027C0004FE75FEC69817A818B819C810E94813522
:1027D00087FDF1CF20E030E0A90169817A818B810A
:1027E0009C810E94813587FF0EC06DE28FEF96E0DD
:1027F0000E94F00E89819A81AB81BC81B058898397
:102800009A83AB83BC832AE037ED43EA5BE36981BB
:102810007A818B819C810E94DF386B017C01698306
:10282000DA828B83FC8269817A818B819C810E9410
:102830004B398B0189879D830E9486359B01AC01B2
:1028400069817A818B819C810E94DE386B017C01D9
:102850002AE0A80169857D818FEF96E00E941E1312
:102860006EE28FEF96E00E94F00E20E030E040E252
:1028700051E4C982DA82EB82FC8269817A818B81A0
:102880009C810E94E7358B0189879D8369831A8328
:102890008B839C8369817A818B819C810E944B39D7
:1028A00069837A838B839C83A981BA81CD01A0E05F
:1028B000B0E089839A83AB83BC832AE0AC01BD017D
:1028C0008FEF96E00E941E1369817A818B819C8133
:1028D0000E9486359B01AC0109831A83B985BB83AD
:1028E0008D818C8369817A818B819C810E94DE3805
:1028F00020E030E040E251E469837A838B839C835B
:1029000069817A818B819C810E94E73569837A8312
:102910008B839C8369817A818B819C810E944B3956
:1029200069837A838B839C83A981BA81AD0160E03E
:1029300070E02AE08FEF96E029960FB6F894DEBF9C
:102940000FBECDBFDF91CF911F910F91FF90EF9000
:10295000DF90CF900C941E136BE771E00C9405137D
:10296000CF93DF93D82FC92F0E9405138D2F9C2F53
:10297000DF91CF910C94AC14CF93DF93D82FC92F54
:102980000E94F70E8D2F9C2FDF91CF910C94AC14E9
:102990000C9405130F931F93CF93DF93EC018B01DE
:1029A00088819981009729F02A813B812617370772
:1029B00090F4B8016F5F7F4F0E94D037FC0180E038
:1029C000309751F0F983E8831B830A838C819D81C2
:1029D000892B09F4108281E0DF91CF911F910F9133
:1029E00008950F931F93CF93DF938C01EB01FC01AC
:1029F0008081918168817981009761F0611571050D
:102A000039F0428153812C813D8142175307A0F454
:102A10000E943E3788819981F801918380838A8161
:102A20009B81938382838C819D819583848319828A
:102A300018821B821A8207C00E94AE388C819D8149
:102A4000F801958384831D821C82DF91CF911F91B1
:102A50000F910895EF92FF920F931F93CF93DF93FF
:102A6000EC017B01CA010C811D81672BA9F0892B28
:102A700099F0040F151FB801CE010E94CA148823D3
:102A800059F0288139818C819D81B701820F931F74
:102A90000E94AE381D830C83DF91CF911F910F915F
:102AA000FF90EF900895DB010D900020E9F711975A
:102AB000AD01461B570B0C942A15EF92FF920F9312
:102AC0001F93CF93DF93EC017B018A01BA010E942F
:102AD000CA14811109C0CE01DF91CF911F910F91CE
:102AE000FF90EF900C94F1120C831D83B701888145
:102AF0009981DF91CF911F910F91FF90EF900C94EE
:102B0000AE38CF93DF93FC011182108213821282C0
:102B100015821482EB0109900020E9F72197AE019C
:102B2000461B570BDF91CF910C945D15FB01EF2BEA
:102B300051F0DB010D900020E9F71197AD01461B24
:102B4000570B0C945D150C94F112AF92BF92CF927B
:102B5000DF92EF92FF920F931F93CF93DF935C016D
:102B60006B018A01E9012417350720F4812F8901BF
:102B7000C42FD82F6DE771E0C5010E948115D601E1
:102B80001496ED90FC900E151F05C8F4CE15DF05C8
:102B900008F47E01D601ED91FC911197EE0DFF1D19
:102BA000C08110826D917C91600F711FC5010E94E0
:102BB0009615D601ED91FC91EE0DFF1DC083C50168
:102BC000DF91CF911F910F91FF90EF90DF90CF9009
:102BD000BF90AF90089585ED8093BC008091A903CC
:102BE0009091AA03A091AB03B091AC030796A11DED
:102BF000B11D23E0B695A795979587952A95D1F7AE
:102C00002091BC0024FD03C01092D0030895409190
:102C1000A9035091AA036091AB037091AC03452BBB
:102C2000462B472B69F30097A105B10541F025E339
:102C30002A95F1F700000197A109B109E1CF809130
:102C4000A8030C94F4032F923F924F925F926F92DD
:102C50007F928F929F92AF92BF92CF92DF92EF922C
:102C6000FF920F931F93CF93DF93CDB7DEB72D97CE
:102C70000FB6F894DEBF0FBECDBF6C018B017A0199
:102C80000E947D01762E872E982EA92E80917E019E
:102C900090917F01A09180018F839887A98721E07F
:102CA00043E050E0BE01695F7F4FD6011C968D91D5
:102CB0009C910E94030F811121C0B12C8B2D2D9668
:102CC0000FB6F894DEBF0FBECDBFDF91CF911F913D
:102CD0000F91FF90EF90DF90CF90BF90AF909F90BB
:102CE0008F907F906F905F904F903F902F900895BE
:102CF0006AE070E080E090E00E94D001F6018485F7
:102D000095850E94DB0E87FDF3CF46E050E0BE01C3
:102D10006F5F7F4FD6011C968D919C910E945A0740
:102D2000B82E882351F28A819B819827892798277A
:102D3000A0E0B0E024E0880F991FAA1FBB1F2A95CE
:102D4000D1F76C80262D22952F701C012D01222A8F
:102D50002A863B864C865D86C201B1010E9486357B
:102D600020E030E048EC52E46A877B878C879D87BF
:102D70006A857B858C859D850E94E73520E030E063
:102D800040E855E36A877B878C879D876A857B85CA
:102D90008C859D850E94E735D60114966D937D93B1
:102DA0008D939C931797462D4F7050E060E070E034
:102DB000762F652F542F44278D81482B762F652F32
:102DC000542F44278E811A012B01282A2A863B86FC
:102DD0004C865D86C201B1010E94863520E030E05C
:102DE00048E453E46A877B878C879D876A857B8567
:102DF0008C859D850E94E73520E030E040E855E372
:102E00006A877B878C879D876A857B858C859D8576
:102E10000E94E73520E030E048E452E46A877B878F
:102E20008C879D876A857B858C859D850E94DE3891
:102E3000D6016D937D938D939C931397E114F104C8
:102E400081F1F701349680E2DF011D928A95E9F75E
:102E500084E290E0A0E0B0E0F70180839183A28358
:102E6000B383D6011A968D919C91A0E0B0E0848343
:102E70009583A683B7838DE090E0A0E0B0E08087E3
:102E80009187A287B387708A818A928AA38AF60182
:102E900080819181A281B381F701848B958BA68B70
:102EA000B78B0115110509F409CFF801349680E2BA
:102EB000DF011D928A95E9F784E290E0A0E0B0E09E
:102EC000F80180839183A283B383D60118968D91F4
:102ED0009C91A0E0B0E084839583A683B7838DE0C6
:102EE00090E0A0E0B0E080879187A287B387708AE6
:102EF000818A928AA38AF60184819581A681B7810D
:102F0000F801848B958BA68BB78BD8CE40E050E030
:102F1000FC01858196810E94231681E00895AB0112
:102F200060E070E0FC01858196810E94231681E0BB
:102F300008950F93CF93DF93EC01FB01CA0130E2B8
:102F4000DE011D923A95E9F7A681B781BF83AE8372
:102F50005D834C83448D558D668D778D4887598769
:102F60006A877B87FD01BB968F70992745E0880FA4
:102F7000991F4A95E1F7E80FF91F838583FD4DC03E
:102F80008771888393859871911102C088608883C6
:102F90000B83822F83708130C9F1823009F441C0E4
:102FA00081113BC081E08A8397968D919D910D9010
:102FB000BC91A02D8C8B9D8BAE8BBF8B848995890A
:102FC000A0E0B0E0DC0199278827428D538D60E0B6
:102FD00070E0842B952BA62BB72B8C8F9D8FAE8FFB
:102FE000BF8F448D558D668D778D488F598F6A8F31
:102FF0007B8F22FD05C081E0DF91CF910F91089575
:10300000CE010E94460C8111F6CF07C082E08A8370
:10301000888184FD02C080FFC7CF18821A8280E0B9
:10302000EBCF83E0F4CFCF93DF93FC01DB01808112
:1030300081110DC080E2EF0119928A95E9F777833B
:10304000668315968C91803131F0803249F080E0B2
:10305000DF91CF91089580E2808381E08283F8CF71
:1030600080E4FACF4F925F926F927F928F929F92FD
:10307000AF92BF92CF92DF92EF92FF920F931F9386
:10308000CF93DF9300D000D000D0CDB7DEB73AE0C9
:10309000D32E42E5C42E50E5F52E1092F60610927E
:1030A000F5061092F906D092F4068AE00E944405D3
:1030B00061E08091F4060E948B03C092F2061092A8
:1030C000F306EFB6F89480915804811126C0E7E228
:1030D000F2E08491E3E1F2E09491E82FF0E0EE0F6A
:1030E000FF1FE150FE4FA591B4918C91E92FE82389
:1030F000E11104C061E08AE00E948B038AE00E9433
:1031000044058CB580618CBD8CB580648CBD8DE030
:103110000E9444058BE00E944405809158048F5F13
:1031200080935804EFBE1092F7068091F606811145
:1031300004C080EF96E00E94F50461E08091F406FF
:103140000E948B031AE08FEF0E948403115011112B
:10315000FACF60E08091F4060E948B030AE020E041
:1031600030E0A90160E080EF96E00E942C09182F62
:10317000813079F101500111F2CF81E08093F506A1
:1031800080EF96E00E94AE0495C088E08093A7048B
:103190000E946A0561E871E0CE0101960E948115E6
:1031A000BE016F5F7F4F8FEF96E00E94F70EBE016A
:1031B0006F5F7F4F83E794E00E94BC1468EE73E07A
:1031C00080E090E00E94D001CE0101960E94E912B9
:1031D00064CF2AEA31E040E050E068E080EF96E01A
:1031E0000E942C0982FD68C182E08093F90614E0F8
:1031F0008FEF0E9484038093F80611501111F8CFCD
:103200008A3A09F067C1412C512C320143948091D4
:10321000F906823019F0412C512C32010EE1440C98
:10322000551C661C771C0A95D1F70E947D01462F1C
:10323000572F5A0120E3A21A28EFB20A20E030E00B
:10324000A90167E380EF96E00E942C09A301920197
:1032500069E280EF96E00E942C09811130C18091D3
:10326000F9068230E1F420E030E0A9016AE380EF62
:1032700096E00E942C0981112FC18FEF0E948403D8
:10328000807C803C19F483E08093F9068FEF0E94E4
:1032900084038FEF0E9484038FEF0E94840380EFEA
:1032A00096E00E94AE04F092F20681E08093F3066D
:1032B0001092FE0680EF96E09093EF068093EE0664
:1032C0002091F506211164CF9093A4048093A30468
:1032D0001092A80441E050E060E070E04093AB043D
:1032E0005093AC046093AD047093AE049093C50406
:1032F0008093C4041092C3048FEF9FEFDC0180938E
:10330000CA049093CB04A093CC04B093CD0440E0C6
:1033100050E0BA0183EC94E00E94220B009709F47C
:1033200037CFFC01E254FE4F8481882309F430CF6B
:103330008081E82EE894E7F8E1102ACF3896808063
:103340009180A280B38020E0B501A40183EC94E0D9
:103350000E94220BFC01892B09F41ACF808982304C
:1033600009F016CF838594858115924009F010CF1E
:1033700095859093A5048FEF890F8093A60481E033
:103380009813ACC0E092A70486899789A0E0B0E0CA
:103390008093AF049093B004A093B104B093B204AF
:1033A000892B8A2B8B2B61F484A195A1A6A1B7A1AF
:1033B0008093AF049093B004A093B104B093B2048F
:1033C00006851785D501C401800F911FA11DB11D70
:1033D0008C019D018093B7049093B804A093B90425
:1033E000B093BA04818992899093AA048093A90426
:1033F0004091AF045091B0046091B1047091B20457
:103400002A013B01440C551C661C771C400E511EC2
:10341000621E731E4092BF045092C0046092C104A9
:103420007092C204B5E0880F991FBA95E1F78150F8
:103430009E4F892F9927869593018201080F191FA6
:10344000211D311D0093B3041093B4042093B504DF
:103450003093B604838994892C01612C712C892BBB
:1034600021F440A051A062A073A0801A910AA20A80
:10347000B30A840C951CA61CB71C04C0B694A79470
:1034800097948794EA94D2F7D501C4010196A11DBF
:10349000B11D8093BB049093BC04A093BD04B09372
:1034A000BE0495EF89169FE09906A104B104E8F4E3
:1034B0008CE08093A8046CCE1093F906A4CE0E94F1
:1034C0007D01462F572FC501841B950B97FFB6CE64
:1034D00087E154CE86E052CE82E150CEE394B9E04B
:1034E000EB1609F452CE880F4BCF80E1A5EF8A1678
:1034F000AFEF9A06A104B10468F084A595A5A6A52E
:10350000B7A58093BF049093C004A093C104B09367
:10351000C20480E28093A8044093C6045093C70479
:103520006093C8047093C9048EEC96E00E94BC0BB3
:1035300063EA74E08EEC96E00E941318882309F485
:1035400027CE83EA94E090935704809356040F901B
:103550000F900F900F900F900F90DF91CF911F91D0
:103560000F91FF90EF90DF90CF90BF90AF909F9022
:103570008F907F906F905F904F900895CF93DF93DF
:10358000FC01DB0118964D915D916D917C911B972B
:10359000452B462B472B39F416966D917C91DF9184
:1035A000CF910C9413189C012F5F3F4F8FE1E901DD
:1035B00019928A95E9F780E1808381E082831696EB
:1035C0008D919C9117979783868318968D919D91E5
:1035D0000D90BC91A02D848F958FA68FB78F81E021
:1035E000DF91CF9108950F931F93CF93DF938C01B9
:1035F000EB01FB013B968DE1DF011D928A95E9F716
:103600004BE050E06AE871E0CE010E94B53881E0FD
:1036100090E0A0E0B0E08C879D87AE87BF87F8017F
:1036200083819481092E000CAA0BBB0B888B998B8C
:10363000AA8BBB8B8CE090E0A0E0B0E08C8B9D8BE4
:10364000AE8BBF8B80E090E0A8ECB2E4888F998FBE
:10365000AA8FBB8F80E090E0A0E0B0E488A399A39C
:10366000AAA3BBA3DF91CF911F910F9108950F9350
:103670001F93CF93DF938C01EB01FB013B968DE110
:10368000DF011D928A95E9F74BE050E062E971E0B5
:10369000CE010E94B53881E090E0A0E0B0E08C87D8
:1036A0009D87AE87BF87F80183819481092E000C26
:1036B000AA0BBB0B888B998BAA8BBB8B8DE090E000
:1036C000A0E0B0E08C8B9D8BAE8BBF8B80E090E058
:1036D000A0E2B2EC8C8F9D8FAE8FBF8F80E090E028
:1036E000AAEAB2E4888F998FAA8FBB8F8AE999E9F9
:1036F000A9E9BEE388A399A3AAA3BBA3DF91CF91B5
:103700001F910F9108952F923F924F925F926F9267
:103710007F928F929F92AF92BF92CF92DF92EF9261
:10372000FF920F931F93CF93DF93CDB7DEB7AC9784
:103730000FB6F894DEBF0FBECDBF8CA39DA37B0157
:103740006A0128A7DB0116960D90BC91A02DBFA39E
:10375000AEA3FB018081807781111AC080E0AC9616
:103760000FB6F894DEBF0FBECDBFDF91CF911F9192
:103770000F91FF90EF90DF90CF90BF90AF909F9010
:103780008F907F906F905F904F903F902F90089513
:10379000ACA1BDA18C918111E1CFFA018681978105
:1037A0000C966DE070E00E94E13969A78185837015
:1037B000AA24A3948111A60E40E050E0BA01C701EB
:1037C0000E94460C812C912C10E0B12C1BA21AA255
:1037D00000E09601265F3F4F3CA72BA7D7015096EC
:1037E0002D903D904D905C90539765E05694479492
:1037F000379427946A95D1F7310160E0C7010E94A0
:103800007D12FC01892B09F075C0F70181818111BE
:10381000A5CFB8A5B4FFA2CF8B2F83708150823083
:1038200008F09CCF111102C03BA22AA21A1508F47D
:103830001CC10111AAC10FEF0A0D6AA07BA0600E86
:10384000711C80E2F7019E012F5F3F4F5901D901A2
:1038500001900D928A95E1F746013AE0830E911CA2
:10386000C4010E94D808582ED6018D919C911197C1
:1038700013969C938E931297212C11E04A2C3B2C8B
:10388000B02E6894B6F84FE0A42E011708F0D5C109
:10389000B301C7010E94C8129C01892B09F45ECFB5
:1038A00080E2F90111928A95E9F78BE0F401D901E0
:1038B00001900D928A95E1F7D60119968C91887145
:1038C000F901848781E294E5918B808B918F808FC1
:1038D000938B828BAEA1BFA190968C9190978160C3
:1038E00090968C9328A5A301B7018CA19DA10E945D
:1038F000991735CF8081853E71F4111108C011E010
:10390000A11001C010E03BA22AA2B12C67CF1A156A
:10391000E0F71F5FFACF81110EC0112329F01A15AD
:1039200008F077CF1F5F75CF11E0A11001C010E044
:103930003BA22AA26ECF1A1508F410E08E3229F3AA
:1039400093859F3009F070C0B11045C0282F2F71AA
:10395000922E39A5321342CF8074B82E882309F4F1
:103960003DCF8584B32E81E0981238CF80E2F701F5
:10397000DE01119601900D928A95E1F7D6018D91A5
:103980009C91119713969C938E931297B1E0B20D70
:10399000BAA78AA58619B81608F420CFB301CE01BC
:1039A00001960E94C8122C01892B09F4AECFF601B2
:1039B0002480358019A269A1C2010E94B3089C012C
:1039C000D6011296ED91FC91E215F30561F4892B75
:1039D00009F404CF9ACF9A94891197CF85858815D9
:1039E00009F4C1CF92CF8038910508F08ECF8FE9CE
:1039F000820F8A3108F42052CF010196D601139626
:103A00009C938E93129780819FE9980F9A3108F4C6
:103A1000805282137ACFB9A1BF5FB9A3BD3059F6E6
:103A2000E1E06E1A7108B5CF93FD6FCFBB2051F066
:103A300021E0921293CECF010E94D80888118ECE39
:103A40000B2D50CF4BE050E06BA57CA5CF010E9421
:103A50008F38892B09F0C2CED60119960C910170CE
:103A6000002309F43FCF01E0B9CE60E0C7010E9416
:103A70007D12892B09F071C0F7018181812C52E000
:103A8000952E81116BCE1A1508F0D3CED7018C91EB
:103A90008072B82E811162CE50968D919D910D90BD
:103AA000BC91A02D81159E4FAF41B10508F056CEB7
:103AB000C7010E94830D882309F450CED7011696C2
:103AC0004D915C9117971C968D919D910D90BC9195
:103AD000A02D1C012D01E2E02E1A310841085108E9
:103AE000DA0114968C91149704C0220C331C441CE8
:103AF000551C8A95D2F750968D919D910D90BC9151
:103B0000A02D280E391E4A1E5B1ED7011696ED9178
:103B1000FC9117978281B81610F12481F40102C03C
:103B2000EE0FFF1F2A95E2F750968D919D910D9013
:103B3000BC91A02D8E0F9F1FA11DB11DF701808B81
:103B4000918BA28BB38BAEA1BFA112968C91B0E1E9
:103B50008B9FC0011124180F96CF1F5F67CE25E001
:103B6000B201A1014B0D511D611D711DCF01809648
:103B70000E94220B009709F4F1CDDC0194011D9203
:103B800021503040E1F7B394C0CFF601B08422E673
:103B9000922E00E010E03EE7832EC6010A96682EC2
:103BA000592E0E947D01462F572F040F151FF3E059
:103BB000FB1510F493E0B92E94E09B0D802F8F70CD
:103BC0008A3028F5805DF601E90FF11D828784E0D7
:103BD000169507958A95E1F79150B912EFCFF60146
:103BE000EB0DF11D828640E050E0BA01C7010E9452
:103BF000460C61E0C7010E947D12BC01009749F4A8
:103C0000D70111968C91882309F415CEA7CD895C34
:103C1000DACFFC018081882309F40DCE838583FDF2
:103C2000E8CF4BE050E0862D952D0E948F38892BF0
:103C300001F79A949110B5CF91CDB301611B710931
:103C4000842D932D0E94C812FC01892B09F486CD86
:103C5000AF81B88590968C919097816090968C9367
:103C60008B2D0113812F8083A38614865586138E96
:103C7000128ED60114962D913C9140E0D6011296F9
:103C80006D917C9113976217730761F42220B1F054
:103C900023948FEF9FEF4530B0F4928381834F5F81
:103CA0003296ECCFCB01019613969C938E9312978C
:103CB000DB018C91082E000C990BEDCF80E090E099
:103CC00022242394E8CF4B3018F495838483E7CFE4
:103CD000978386834C3019F032964CE0CFCF1F5F2C
:103CE000D4CD2F923F924F925F926F927F928F929C
:103CF0009F92AF92BF92CF92DF92EF92FF920F937B
:103D00001F93CF93DF93CDB7DEB7EA970FB6F89442
:103D1000DEBF0FBECDBF7C01FB018A01222E309792
:103D200039F019821A821B82DC012C912223D1F0F6
:103D300080E0EA960FB6F894DEBF0FBECDBFDF91EC
:103D4000CF911F910F91FF90EF90DF90CF90BF9098
:103D5000AF909F908F907F906F905F904F903F902B
:103D60002F900895E55DFD4F80818077882301F3D2
:103D7000DA018C919E2E8F2E8F3271F58D018D91EF
:103D80008F32E1F36681778181111BC0C701EA960A
:103D90000FB6F894DEBF0FBECDBFDF91CF911F915C
:103DA0000F91FF90EF90DF90CF90BF90AF909F90DA
:103DB0008F907F906F905F904F903F902F900C94DA
:103DC0001318FE0131966F01CF010E94131888234A
:103DD00009F4AECF9C2C8D2C9E012F5D3F4F3901F5
:103DE000CE0101962C01F80190819EAB5F013196C6
:103DF0009032D1F3BAA2A9A26FA178A5CDA0DEA07E
:103E0000A50180E090E0FA01A191AA2311F0AF3260
:103E1000E1F578A76FA3DEA2CDA2615071096F3FD3
:103E2000710508F085CF8A01FA0130804F5F5F4F3E
:103E3000F0E23F16C1F32FE23216A9F34BE050E057
:103E400060E270E0CE018B960E946A3591E03EA957
:103E50003E3209F490E0F501D5018D915D018E327D
:103E6000D1F396012150310938AF2FAB2FA938ADCE
:103E7000E217F30720F4D9018C918E32C9F540E0A6
:103E8000A0E050E067E078E084C0A7FD51CFA03407
:103E900034F5AA33BCF4AA3209F44ACF44F09C01A9
:103EA0002F5F3F4FAE32F9F06F01C9011EC0A03243
:103EB0000CF43ECFA23209F43BCF9C012F5F3F4F61
:103EC000A032F1CFAA53B5E301C0B695AA95EAF79F
:103ED000B0FD2ECF6F019C012F5F3F4FE6CFAF7D2E
:103EE000AC35C1F725CFC9019B01AF01B9018BCF1B
:103EF000AFA9B8AD1197B8AFAFABB8CF80818E3254
:103F000049F42FA938AD2E173F0791F46AE0A8E0D5
:103F100070E13EC0823261F08C3751F035EA380FE3
:103F2000333030F036ED380F363090F48D32F1F01A
:103F300090E08FE56A17E0F46A3009F463C08FA956
:103F400098AD8E179F0708F45DC0FC0131970CC037
:103F500036EC380F363028F03FED380F3E3508F498
:103F600040C0807C803821F790E012C06A1720F3AF
:103F7000BB24B394BA0E2BE230E02C0F3D1F2A0F66
:103F8000311DD9018C93B6E0BB1508F0B9A6AB2D55
:103F90003196EC15FD0508F4B1CF8BA5803209F4FC
:103FA000C7CE992389F15423511142E04AA7332007
:103FB00009F440C020E0A301692D782DC7010E94BB
:103FC000831B882309F4B4CE80E2F701D20101906B
:103FD0000D928A95E1F7C7010E94BC0B942C852CA9
:103FE00002CF6A1708F4A8CF3FE9380F3A3118F426
:103FF0008052472BBDCF3FEB380F3A3108F0B8CF96
:10400000572BB6CF90E0C9CFE1E0EAA789A590E0B1
:10401000EBE2F0E0EC0FFD1FE80FF91F2EE7208325
:104020002CE230E02C0F3D1F820F931F21E3DC01B7
:104030002C93BDCF222DA301692D782DC7010E949D
:10404000831B77CE0F931F93CF93DF93CDB7DEB74C
:1040500062970FB6F894DEBF0FBECDBF8C01CB01C7
:10406000F8011182108213821282158214824AE0B2
:10407000BE016F5F7F4F0E944031BE016F5F7F4F77
:10408000C8010E94961562960FB6F894DEBF0FBE67
:10409000CDBFDF91CF911F910F910895EF92FF92C5
:1040A0000F931F93CF93DF93CDB7DEB728970FB64B
:1040B000F894DEBF0FBECDBF7C01CB014AE08E017C
:1040C0000F5F1F4FB8010E944031F801019000209E
:1040D000E9F73197AF01401B510BB801C7010E94AE
:1040E0002A1528960FB6F894DEBF0FBECDBFDF911C
:1040F000CF911F910F91FF90EF900895BC01809197
:10410000360490913704892B39F481E0FB019081CA
:10411000992309F080E0089580913204909133044E
:104120000E94A5389C0181E021153105F2CF00974E
:1041300011F00C94163160E070E0CB010895CF923D
:10414000DF92EF92FF920F931F93CF93DF93CDB740
:10415000DEB72C970FB6F894DEBF0FBECDBF6AE96D
:1041600071E0CE0101967C010E94811580915D0471
:1041700090915E046701892BA9F4C6010E94E9129F
:104180000FEF1FEFC8012C960FB6F894DEBF0FBEDD
:10419000CDBFDF91CF911F910F91FF90EF90DF90F6
:1041A000CF9008950091590410915A0469817A8141
:1041B000C8010E94C438009701F3801B910B8C0149
:1041C000C7010E94E91210161106D4F6980140E0CA
:1041D00050E069E574E0C7010E94A5157E0197E0F3
:1041E000E90EF11C20915D0430915E04A8014F5F3F
:1041F0005F4F69E574E0C7010E94A5156F8178855E
:104200006115710591F04B855C8589E594E00E940C
:104210005D1589819A810E9497208B01C7010E94B8
:10422000E912C6010E94E912ADCF89E594E00E942F
:10423000F112EFCFEF92FF920F931F93CF93DF9383
:10424000CDB7DEB768970FB6F894DEBF0FBECDBF0F
:104250007C01842F8E010F5F1F4F22E044E08D8B85
:104260005E8B6F8B788F6D897E898F89988D0E9488
:10427000E530BC01FC0101900020E9F73197AF0166
:10428000481B590BC7010E942A1568960FB6F8946F
:10429000DEBF0FBECDBFDF91CF911F910F91FF9079
:1042A000EF9008956F927F928F929F92AF92BF92FC
:1042B000CF92DF92EF92FF920F931F93CF93DF93F2
:1042C000CDB7DEB73C0109891A89EB88FC88CD8817
:1042D000DE88AF88B88C898C9A8C6DE771E00E947B
:1042E00081156B8D7C8DC3010E944E206CE971E0BD
:1042F000C3010E9453158AE0881691042CF46EE9DC
:1043000071E0C3010E945315B401C3010E944E2005
:104310006CE971E0C3010E9453158AE0A816B1044C
:104320002CF46EE971E0C3010E945315B501C3017D
:104330000E944E206AE971E0C3010E9453158AE091
:10434000C816D1042CF46EE971E0C3010E94531524
:10435000B601C3010E944E206FE272E0C3010E94C9
:1043600053158AE0E816F1042CF46EE971E0C301FC
:104370000E945315B701C3010E944E206FE272E004
:10438000C3010E9453150A3011052CF46EE971E047
:10439000C3010E945315B801C3010E944E206AE96F
:1043A00071E0C3010E94531549A15AA16BA17CA1E0
:1043B000C3010E941A216AE971E0C3010E945315EA
:1043C0004D8D5E8D6F8D78A1C3010E941A21C301AE
:1043D000DF91CF911F910F91FF90EF90DF90CF90E1
:1043E000BF90AF909F908F907F906F9008950F93A4
:1043F0001F93CF93DF93CDB7DEB7AC970FB6F8948A
:10440000DEBF0FBECDBF60E08EE00E94140660EA02
:1044100071E08FEF96E00E94C8140E9432188E015E
:104420000F5F1F4FC8010E94670126E145E051E080
:1044300063EA74E0CE010D960E94711EC8010E94CD
:10444000A40E8091830462EA71E08823E9F18091EF
:104450009B0490919C04A0919D04B0919E040A97A6
:10446000A105B10530F464EB71E087E794E00E94A8
:10447000B0142DB73EB7245131090FB6F8943EBFA2
:104480000FBE2DBFADB7BEB7119684E1EFE5F4E0E6
:1044900001900D928A95E1F7C8010E945221B8015E
:1044A00087E794E00E94BC14C8010E94E91283E8E7
:1044B00094E00E94BC0B0FB6F894DEBF0FBECDBFD8
:1044C000811110C064ED71E083E794E0AC960FB603
:1044D000F894DEBF0FBECDBFDF91CF911F910F913A
:1044E0000C94B014AC960FB6F894DEBF0FBECDBFDF
:1044F000DF91CF911F910F9108951F921FB61F92C8
:1045000011242F933F938F939F93AF93BF938091E9
:104510002E0490912F04A0913004B0913104309179
:104520002D0423E0230F2D3750F50196A11DB11D59
:1045300020932D0480932E0490932F04A093300495
:10454000B09331048091290490912A04A0912B0406
:10455000B0912C040196A11DB11D80932904909364
:104560002A04A0932B04B0932C04BF91AF919F9188
:104570008F913F912F911F901FBE1F90189526E895
:10458000230F0296A11DB11DD3CF1F920F920FB61C
:104590000F9211242F933F934F935F936F937F93C9
:1045A0008F939F93AF93BF93EF93FF939091B90035
:1045B000892F887F803509F4C0C008F042C080335D
:1045C00009F4B6C098F5883101F1D0F4883009F4C7
:1045D000A7C0803109F4A4C0882309F4F0C0FF917A
:1045E000EF91BF91AF919F918F917F916F915F916B
:1045F0004F913F912F910F900FBE0F901F901895E4
:10460000803209F495C0883251F79091A5038091CA
:10461000A403981778F5E091A50381E08E0F8093AD
:10462000A503F0E0EC57FC4F80817CC0803409F496
:1046300090C0883409F47EC0883389F68093830360
:104640006DC0803A09F49FC0B8F5803809F489C07C
:1046500050F5803611F1D8F4883509F6E091A503BC
:1046600081E08E0F8093A5038091BB00F0E0EC57B2
:10467000FC4F80838091CF0381115CC081E08093E7
:10468000CE0384EA8093BC001092D003A8CF803779
:1046900021F0987E983609F0A2CF83E08093D00372
:1046A0001092820341C0803909F45BC0987E98382B
:1046B00009F095CF85E839C0883BD9F058F5883A9C
:1046C00019F0803B09F08BCF84E08093D0031092E7
:1046D0005F031092CD03E0915D03F0915E030995B5
:1046E0008091CD03811105C081E08093CD031092AC
:1046F000AD03E0915F0381E08E0F80935F03F0E0F4
:10470000E355FC4F80818093BB0090915F038091C3
:10471000CD0323C0907F903C09F061CF85ECB2CFF0
:104720008091A6038093BB0085EC8093BC0057CF9B
:10473000809383030E94EB1552CFE091A50381E0A3
:104740008E0F8093A5038091BB00F0E0EC57FC4FE7
:1047500080839091A5038091A403981708F0AACFB5
:10476000E3CF80918203803208F0A4CFE0918203EE
:1047700081E08E0F809382038091BB00F0E0EE59C0
:10478000FC4F8083D1CF85EC8093BC001092D00386
:1047900080918203803230F4E0918203F0E0EE59A0
:1047A000FC4F10826091820370E0E0916003F09111
:1047B000610382E693E009951092820310CF109274
:1047C0008303B8CF89E594E00E94E91282E394E084
:1047D0000E94E91288E394E00E94E9128091520459
:1047E00090915304009739F0DC01ED91FC91028027
:1047F000F381E02D09958091540490915504009720
:1048000039F0DC01ED91FC910280F381E02D0994F7
:104810000895CDB7DEB7C859D1090FB6F894DEBFF9
:104820000FBECDBF789484B5826084BD84B58160AD
:1048300084BD85B5826085BD85B5816085BD80916B
:104840006E00816080936E001092810080918100E3
:1048500082608093810080918100816080938100DB
:10486000809180008160809380008091B10084609D
:104870008093B1008091B00081608093B0008091FE
:104880007A00846080937A0080917A0082608093BD
:104890007A0080917A00816080937A0080917A001A
:1048A000806880937A001092C10082E08093C000FB
:1048B0001092C50080E18093C4008091C10088619E
:1048C0008093C10061EE71E083E794E00E94B01430
:1048D0000E946A0582E00E9472056EEE71E08FEF21
:1048E00096E00E94C81468EE73E080E090E00E94B9
:1048F000D00128E6D22E38E1E32E34E0F32E00E298
:1049000010E08091240490912504009711F00E94FA
:104910003E3786E090E00E94A836FC01D082F28209
:10492000E1821382158304839093250480932404E9
:104930000E943107882309F455C0F8E39F2EA8E1AF
:10494000CA2EA4E0DA2EB0E2AB2EB12C1AEB812EE7
:1049500001EE502E88E0482E94E4E92E94E0F92EE2
:1049600064E170E080E090E00E94D001809150040A
:1049700090915104009711F00E943E3786E090E03C
:104980000E94A836FC019082D282C1821382B58235
:10499000A48290935104809350040E9431078111A6
:1049A00042C00E946A0563E072E0CE0101960E9457
:1049B0008115BE016F5F7F4F8FEF96E00E94F70E6B
:1049C000BE016F5F7F4F83E794E00E94BC1468EEE6
:1049D00073E080E090E00E94D001CE0101960E9439
:1049E000E912BECF0E946A0567EF71E0CE01019621
:1049F0000E948115BE016F5F7F4F8FEF96E00E948E
:104A0000F70EBE016F5F7F4F83E794E00E94BC14F6
:104A100068EE73E080E090E00E94D001CE01019644
:104A20000E94E9126ECF898221E041E050E0BE0190
:104A30006F5F7F4F80915004909151040E94030F4B
:104A4000882309F4AECF64E170E080E090E00E943A
:104A5000D00159824A821B8221E043E050E0BE012E
:104A60006F5F7F4F80915004909151040E94030F1B
:104A70008701882309F495CF8091500490915104C7
:104A80000E94DB0E87FD69C0809150049091510413
:104A90000E94DB0E83FF85CF87E090E00E94A8365E
:104AA000FC0187E491E09183808380E290E194832C
:104AB000838305831683F0935504E093540487E0C1
:104AC00090E00E94A836FC0189E391E09183808305
:104AD00081E290E19483838305831683F0935304EA
:104AE000E09352040E946A0560E172E08FEF96E065
:104AF0000E94C814CE0101960E94310F8E8190E071
:104B000090931704809316046CE474E080E090E0C6
:104B10000E94D00110920001CE0101960E94310F37
:104B20008E8190E02091160430911704821793072C
:104B3000D9F481E08093000161E080E00E941406D6
:104B400066E172E08FEF96E00E94C81462E272E0C4
:104B500083E794E00E94B0140BC06AE070E080E04C
:104B600090E00E94D00188CF809100018111E4CFB4
:104B70009E012F5F3F4FCD57DF4F39832883C358A6
:104B8000D040CD57DF4F3881C358D040CB57DF4F8F
:104B90003883C558D040CC57DF4F6881C458D040C7
:104BA000CA57DF4F6883C658D0401E017DE2270EEA
:104BB000311C2E0181E5480E511CC956DF4F488239
:104BC000C759D040C856DF4F5882C859D04081E0FD
:104BD00090E00E94313A90E09093040180930301A9
:104BE00082E090E00E94313A90E09093020180933D
:104BF000010180912804882309F4F1C0109228044F
:104C00006DE771E0CE0185589F4F0E9481156DE7D9
:104C100071E0CE018B589F4F0E9481156DE672E0C6
:104C2000CB57DF4F8881C558D040CA57DF4F988196
:104C3000C658D0400E94811580913C0490913D045B
:104C4000892B09F4F1C2E0903804F09039046981AD
:104C50007A81C7010E94C4388C01892B09F4E4C20F
:104C60000E191F09CB57DF4F8881C558D040CA574E
:104C7000DF4F9881C658D0400E94E912980140E069
:104C800050E068E374E0CB57DF4F8881C558D040CF
:104C9000CA57DF4F9881C658D0400E94A515CB5700
:104CA000DF4F6881C558D040CA57DF4F7881C6585A
:104CB000D04082E394E00E94F114CB57DF4F88810B
:104CC000C558D040CA57DF4F9881C658D0400E947F
:104CD000E91220913C0430913D04A8014F5F5F4FE1
:104CE00068E374E0CB57DF4F8881C558D040CA577E
:104CF000DF4F9881C658D0400E94A515CB57DF4F93
:104D00006881C558D040CA57DF4F7881C658D04017
:104D100089E594E00E94F114CB57DF4F8881C55894
:104D2000D040CA57DF4F9881C658D0400E94E91240
:104D300081E392E00E947E20882309F407C30E9449
:104D40009F208C0197FF73C2ADB7BEB754970FB6C3
:104D5000F894BEBF0FBEADBF119684E1EFE5F4E05D
:104D600001900D928A95E1F7CB57DF4F8881C558A6
:104D7000D040CA57DF4F9881C658D0400E94522178
:104D8000CB57DF4F6881C558D040CA57DF4F788175
:104D9000C658D04083E794E00E94BC14CB57DF4F45
:104DA0008881C558D040CA57DF4F9881C658D04037
:104DB0000E94E9120FB6F894DEBF0FBECDBF6DE7BB
:104DC00071E088E394E00E949615CE018B589F4FC6
:104DD0000E94E912CE0185589F4F0E94E9128091EE
:104DE000C00087FD09C7A101C956DF4F6881C759B7
:104DF000D040C856DF4F7881C859D04084E494E051
:104E00000E942316D2015496AC9054975596BC90AC
:104E100055975696CC9056975796DC902A2D3B2D59
:104E20004C2D5D2DC957DF4FA882C758D040C857B9
:104E3000DF4FB882C858D040C757DF4FC882C95823
:104E4000D040C657DF4FD882CA58D040C957DF4F2D
:104E5000688179818A819B81C758D0400E947F39BF
:104E6000882331F0A12CB12C86ECC82E92ECD92EDF
:104E70002296EFAC22972396FFAC239724960FAD92
:104E8000249725961FAD25972E2D3F2D402F512F6E
:104E9000C957DF4FE882C758D040C857DF4FF88264
:104EA000C858D040C757DF4F0883C958D040C657AD
:104EB000DF4F1883CA58D040C957DF4F68817981C6
:104EC0008A819B81C758D0400E947F398111B1C629
:104ED00020E030E0A901C957DF4F688179818A81DC
:104EE0009B81C758D0400E948135882309F494C122
:104EF000CB57DF4F8881C558D040CA57DF4F9881C4
:104F0000C658D0400E94310F86E0CB57DF4FE88172
:104F1000C558D040CA57DF4FF881C658D040AEE3DD
:104F2000B4E001900D928A95E1F78091430490E0FE
:104F30009093600480935F048A2D9B2DAC2DBD2D32
:104F400080936B0490936C04A0936D04B0936E04F3
:104F50008E2D9F2DA02FB12F80936F0490937004FE
:104F6000A0937104B09372048091420490E09093F6
:104F70006204809361048091410490E09093640402
:104F8000809363040091400410E010936604009342
:104F9000650480913F0490E09093680480936704D7
:104FA00080913E0490E090936A048093690480911C
:104FB00026049091270466E070E00E94F539892B61
:104FC00009F042C00E946A0582E00E94720560E01A
:104FD00080E00E94140680910001882309F42EC607
:104FE00060E473E08FEF96E00E94C81461E080E017
:104FF0000E94140660916F04709170048091710496
:10500000909172040E947B136BE473E08FEF96E043
:105010000E94C81480916B0490916C04A0916D045F
:10502000B0916E04C957DF4F88839983AA83BB83ED
:10503000C758D040BC01CD010E947B136EE473E0E1
:105040008FEF96E00E94C8140E943218CB57DF4FB2
:105050008881C558D040CA57DF4F9881C658D04084
:105060000E94670126E145E051E063EA74E0CE0169
:105070000D960E94711ECB57DF4F8881C558D040D6
:10508000CA57DF4F9881C658D0400E94A40E809125
:1050900083048111DFC661E573E083E794E00E9439
:1050A000B01420915F0430916104409163045091E9
:1050B0006504609167048091690490916A04803D61
:1050C000A7E09A0710F0805D9740E6968FAFE697CD
:1050D000E7966FAFE797E8965FAFE897E9964FAF2F
:1050E000E997EA963FAFEA97EB962FAFEB97C55754
:1050F000DF4F2881CB58D040CF56DF4F3881C15980
:10510000D040C357DF4F4881CD58D040C157DF4F03
:105110005881CF58D040C301B0ED6B16B7E07B0685
:1051200010F0805D974089835A834B833C832D83A5
:10513000CC56DF4FE881C459D040EE83CE018B5866
:105140009F4F0E94F1026B017C01CB57DF4F88819A
:10515000C558D040CA57DF4F9881C658D0400E94EA
:10516000F1024B015C0180910001811146C0409128
:105170000301509104018091010190910201489F27
:105180009001499F300D589F300D11244CE3429FF0
:10519000C001439F900D1124092E000CAA0BBB0BDC
:1051A000C818D908EA08FB088C159D05AE05BF058F
:1051B00014F1CF56DF4F88819981C159D040C5572E
:1051C000DF4F28813981CB58D040820F931FC357BE
:1051D000DF4F68817981CD58D040860F971FC15726
:1051E000DF4FA881B981CF58D0408A0F9B1F860D11
:1051F000971D059714F40E94F72168EE73E080E094
:1052000090E00E94D001809126049091270401969D
:105210009093270480932604E0E0F0E0EF2B09F45C
:10522000D6CC0E940000D3CC0FEF1FEF1BCD0E9405
:105230009F207C0197FDCBC10E949F206C0197FDB0
:10524000C6C10E949F205C0197FDC1C10E949F20A2
:105250004C0197FDBCC18091590490915A040E9461
:1052600097209B0177FDB3C1862FB82DAA2DC95772
:10527000DF4FC882C758D040CD56DF4FE882C359B0
:10528000D040003DF7E01F0714F0005D174095E0A7
:10529000CD57DF4FE881F981C358D04011929A95DC
:1052A000E9F71AE0612F0E94D539982F990F980FCE
:1052B000990F920F9A838B2F0E94D539982F990FAF
:1052C000980F990F980D9B838A2F0E94D539982F9C
:1052D000990F980F990F9A0D9C83C957DF4F8881BA
:1052E000C758D0400E94D539982F990F980F990F21
:1052F0009C0D9E83CD56DF4F8881C359D0400E94BC
:10530000D539982F990F980F990F9E0D9F83802F55
:105310000E94D539982F990F980F990F900F988761
:1053200021E048E050E0CB57DF4F6881C558D040BE
:10533000CA57DF4F7881C658D0408091240490919D
:1053400025040E94030F1092000139CD83E392E0FF
:105350000E947E20882391F1C12CD12C760165E337
:1053600072E083E794E00E94C8142AE0B701A60126
:1053700083E794E00E941E1367E372E083E794E002
:105380000E94C814C6010E94313A482F50E060E0E4
:1053900070E02AE083E794E00E941E1383E794E024
:1053A0000E94AC14FFEFCF1ADF0AEF0AFF0A23E0D6
:1053B000C216D104E104F10491F601CD80EA91E036
:1053C0000E947E20882319F00E94F721F8CC8CE3FC
:1053D00092E00E947E20882309F441C0CB57DF4F22
:1053E0008881C558D040CA57DF4F9881C658D040F1
:1053F0000E94670120E045E051E063EA74E0CE01DD
:105400000D960E94711ECB57DF4F8881C558D04042
:10541000CA57DF4F9881C658D0400E94A40E809191
:1054200083046EE372E0882309F4CEC383E894E03A
:105430000E944801892B49F483E894E00E94BC0B48
:1054400083E794E00E94AC14BACC83E894E00E9415
:105450003C12682F83E794E00E947703E7CF8DE446
:1054600092E00E947E20882309F48DC06FE472E0F0
:1054700083E794E00E94B0141DA61EA61FA621E09B
:1054800045E051E063EA74E0C1010E94711E5101E0
:10549000882309F494CC19821A821B828FA581FF7C
:1054A0008ECC2D964CAD5DAD6EAD7FAD2D9741157B
:1054B00051056105710539F08BA99CA90E94510E17
:1054C000882309F47CCC61E0C5010E94630B8C0148
:1054D000009709F474CC0E94D808D82E85EED80124
:1054E0008C931DA61FA6EBA8FCA8C7010E94100B59
:1054F000882309F464CCC8A8CC2009F460CCB50199
:10550000CB57DF4F8881C558D040CA57DF4F9881AD
:10551000C658D0400E94BE1A882309F450CC01E03E
:1055200010E0E5EEBE2E69A97AA9601B710BCB577E
:10553000DF4F8881C558D040CA57DF4F9881C65881
:10554000D0400E94C812FC01892B09F438CC838515
:105550008F3009F034CC9081892F8F7180132FCC3C
:105560008585D8122CCCB082F70180A1816080A300
:1055700096FF04C0C7010E94100B21CC0F5F1F4F84
:10558000C01688F61CCC8BE592E00E947E20F82E97
:10559000882309F45BC08091590490915A040E94B9
:1055A0009720CB0118161906ECF16EE572E083E73F
:1055B00094E00E94C81469E574E083E794E00E94D7
:1055C000F70E6FE672E083E794E00E94B0146AE79A
:1055D00072E083E794E00E94B0146EE872E083E723
:1055E00094E00E94B01461EA72E083E794E00E94C4
:1055F000B01467EB72E083E794E00E94B0146EEDA4
:1056000072E083E794E00E94B0146CE173E083E7FA
:1056100094E00E94B0146DE273E083E794E00E948E
:10562000B0140ECF709304016093030181E090E009
:105630000E94393A8CE390E090930201809301013B
:105640006CE382E090E00E94393AB9CB81E792E0C6
:105650000E947E20882309F48DC20E943218CB5705
:10566000DF4F8881C558D040CA57DF4F9881C65850
:10567000D0400E94670160915604709157048E01DA
:10568000035F1F4F20E04CE951E0C8010E94711EEA
:10569000C957DF4F0883C758D040CD56DF4F188316
:1056A000C359D040882309F477C07E01FDE2EF0E94
:1056B000F11C9E01235C3F4FCF57DF4F3983288376
:1056C000C158D0407FE2972E80918304811177CB1F
:1056D0008D858077882309F472CB8D8D9E8DAF8D5B
:1056E000B8A18F719927AA27BB27892B8A2B8B2BCF
:1056F00009F065CB00E010E0AD8CBE8CCF8CD8A05B
:1057000060E0C957DF4F8881C758D040CD56DF4F82
:105710009881C359D0400E947D12FC01892B09F465
:105720004ECB8081882309F44ACB8E3209F418C20B
:10573000853E09F415C2938593FD14C2002329F018
:10574000CF010E94D80881133ACBB601A50125E00C
:1057500076956795579547952A95D1F720E0C957D3
:10576000DF4F6881C758D040CD56DF4F7881C3598D
:10577000D04083E894E00E949917882309F41FCB56
:105780001FAA60919B0470919C0480919D0490914C
:105790009E04FE01F79680C087EE91E00E94CA0E3B
:1057A0008FEE91E00E94CA0E83E794E00E94AC1451
:1057B000E091EE06F091EF06309719F0858188238D
:1057C00069F18BED91E00E94CA0EE091EE06F09136
:1057D000EF064AE2309709F0458150E060E070E062
:1057E00020E183E794E00E941E1387ED91E00E9480
:1057F000CA0EE091EE06F091EF06309709F0F084C2
:105800004F2D50E060E070E020E183E794E00E94DB
:105810001E1383E794E00E94AC14FFCF8091A8048C
:105820008111FBCF86EC91E00E94CA0E83E794E0E1
:105830000E94AC14F2CFDC01CB0133E3839F8827B5
:10584000030E811D202D939F9927800D911DA39FED
:10585000AA27900DA11DB39FBB27A00DB11D112438
:10586000280F891F9A1FAB1FB11D290F8A1F9B1F6D
:10587000A11DB11D2B0F811D911DA11DB11DB6953F
:10588000A7959795879527953AE0239F212D112479
:10589000BC01CD01205D22936115710531E08307C4
:1058A000910508F0C8CFCF010E9408059C01AC010A
:1058B0004E195F098E159F0510F440E050E0C701B6
:1058C000821B930B2E153F0510F480E090E060E200
:1058D00070E0820F931F0E946A35B70183E794E05E
:1058E0000E94051360E283E794E00E94770383E857
:1058F00094E00E94800B882309F459C060E083E89B
:1059000094E00E94630BFC01892B09F450C0C68807
:10591000D788008D118D0115110509F46AC0B601F3
:1059200045E0769567954A95E1F76F73772740E0F4
:10593000CF57DF4F8881C158D040CE57DF4F988175
:10594000C258D0400E9430056D2D669566956695CB
:105950004AE370E00E943005FC0180E28293B801C6
:105960006F71772740E0CF010E943005B80155E004
:10597000769567955A95E1F76F7077274DE20E940B
:105980003005012F11270695B8016454784F4DE278
:105990000E943005BC01CF57DF4F48815981C15863
:1059A000D040461B570B83E794E00E94150260E24B
:1059B00083E794E00E9477031DA61EA61FA6109100
:1059C0008304112309F45FC08091860481116EC0A5
:1059D00010761123B9F062969FAE629763961FAE60
:1059E0006397BE016F5A7F4F83E794E00E940513CF
:1059F0004AC040E150E060E270E0C7010E946A35B1
:105A0000B701C9CF60E083E894E00E94630B6C01AA
:105A10000097C9F1DC0150E068E04C915830B1F4D6
:105A2000403229F160E14EE2812F90E09C012F5F2E
:105A30003F4F2D30310538F51F5F21E530E02C0F49
:105A40003D1F820F931FFC0140830EC011968FEB08
:105A5000840F8A3138F4F60184858623882321F364
:105A6000405EE2CF403201F75F5F5C30B1F6812FDC
:105A700090E0E1E5F0E0EC0FFD1FE80FF91F108268
:105A8000892B09F0AECF809183048077882329F099
:105A90006FE283E794E00E94770383E794E00E943B
:105AA000AC1483E894E00E94BC0B0ECE63E874E073
:105AB000C7010E94BE1ACC24C394D12C882319F3A9
:105AC000BC2C809186048C15F0F260918704709153
:105AD00088046C197D09C7010E94C8128C010097C7
